{
	"LP3/BT/Student.sol": {
		"StudentData": {
			"abi": [
				{
					"stateMutability": "payable",
					"type": "fallback"
				},
				{
					"inputs": [
						{
							"internalType": "uint256",
							"name": "_age",
							"type": "uint256"
						},
						{
							"internalType": "string",
							"name": "_name",
							"type": "string"
						},
						{
							"internalType": "string",
							"name": "_major",
							"type": "string"
						}
					],
					"name": "addStudents",
					"outputs": [],
					"stateMutability": "nonpayable",
					"type": "function"
				},
				{
					"inputs": [
						{
							"internalType": "uint256",
							"name": "index",
							"type": "uint256"
						}
					],
					"name": "getStudent",
					"outputs": [
						{
							"components": [
								{
									"internalType": "uint256",
									"name": "age",
									"type": "uint256"
								},
								{
									"internalType": "string",
									"name": "name",
									"type": "string"
								},
								{
									"internalType": "string",
									"name": "major",
									"type": "string"
								}
							],
							"internalType": "struct StudentData.Student",
							"name": "",
							"type": "tuple"
						}
					],
					"stateMutability": "view",
					"type": "function"
				},
				{
					"inputs": [],
					"name": "getStudentCount",
					"outputs": [
						{
							"internalType": "uint256",
							"name": "",
							"type": "uint256"
						}
					],
					"stateMutability": "view",
					"type": "function"
				},
				{
					"stateMutability": "payable",
					"type": "receive"
				}
			],
			"devdoc": {
				"kind": "dev",
				"methods": {},
				"version": 1
			},
			"evm": {
				"assembly": "    /* \"LP3/BT/Student.sol\":66:812  contract StudentData{... */\n  mstore(0x40, 0x80)\n  callvalue\n  dup1\n  iszero\n  tag_1\n  jumpi\n  0x00\n  dup1\n  revert\ntag_1:\n  pop\n  dataSize(sub_0)\n  dup1\n  dataOffset(sub_0)\n  0x00\n  codecopy\n  0x00\n  return\nstop\n\nsub_0: assembly {\n        /* \"LP3/BT/Student.sol\":66:812  contract StudentData{... */\n      mstore(0x40, 0x80)\n      jumpi(tag_1, lt(calldatasize, 0x04))\n      shr(0xe0, calldataload(0x00))\n      dup1\n      0x41e0c407\n      eq\n      tag_3\n      jumpi\n      dup1\n      0x642f9163\n      eq\n      tag_4\n      jumpi\n      dup1\n      0xedfa2296\n      eq\n      tag_5\n      jumpi\n      jump(tag_2)\n    tag_1:\n      jumpi(tag_2, calldatasize)\n      stop\n    tag_2:\n      stop\n        /* \"LP3/BT/Student.sol\":421:515  function getStudentCount() public view returns (uint){... */\n    tag_3:\n      callvalue\n      dup1\n      iszero\n      tag_10\n      jumpi\n      0x00\n      dup1\n      revert\n    tag_10:\n      pop\n      tag_11\n      tag_12\n      jump\t// in\n    tag_11:\n      mload(0x40)\n      tag_13\n      swap2\n      swap1\n      tag_14\n      jump\t// in\n    tag_13:\n      mload(0x40)\n      dup1\n      swap2\n      sub\n      swap1\n      return\n        /* \"LP3/BT/Student.sol\":523:736  function getStudent(uint index) public view returns (Student memory){... */\n    tag_4:\n      callvalue\n      dup1\n      iszero\n      tag_15\n      jumpi\n      0x00\n      dup1\n      revert\n    tag_15:\n      pop\n      tag_16\n      0x04\n      dup1\n      calldatasize\n      sub\n      dup2\n      add\n      swap1\n      tag_17\n      swap2\n      swap1\n      tag_18\n      jump\t// in\n    tag_17:\n      tag_19\n      jump\t// in\n    tag_16:\n      mload(0x40)\n      tag_20\n      swap2\n      swap1\n      tag_21\n      jump\t// in\n    tag_20:\n      mload(0x40)\n      dup1\n      swap2\n      sub\n      swap1\n      return\n        /* \"LP3/BT/Student.sol\":223:413  function addStudents(uint _age, string memory _name, string memory _major) public{... */\n    tag_5:\n      callvalue\n      dup1\n      iszero\n      tag_22\n      jumpi\n      0x00\n      dup1\n      revert\n    tag_22:\n      pop\n      tag_23\n      0x04\n      dup1\n      calldatasize\n      sub\n      dup2\n      add\n      swap1\n      tag_24\n      swap2\n      swap1\n      tag_25\n      jump\t// in\n    tag_24:\n      tag_26\n      jump\t// in\n    tag_23:\n      stop\n        /* \"LP3/BT/Student.sol\":421:515  function getStudentCount() public view returns (uint){... */\n    tag_12:\n        /* \"LP3/BT/Student.sol\":469:473  uint */\n      0x00\n        /* \"LP3/BT/Student.sol\":492:500  students */\n      dup1\n        /* \"LP3/BT/Student.sol\":492:507  students.length */\n      dup1\n      sload\n      swap1\n      pop\n        /* \"LP3/BT/Student.sol\":485:507  return students.length */\n      swap1\n      pop\n        /* \"LP3/BT/Student.sol\":421:515  function getStudentCount() public view returns (uint){... */\n      swap1\n      jump\t// out\n        /* \"LP3/BT/Student.sol\":523:736  function getStudent(uint index) public view returns (Student memory){... */\n    tag_19:\n        /* \"LP3/BT/Student.sol\":576:590  Student memory */\n      tag_28\n      tag_29\n      jump\t// in\n    tag_28:\n        /* \"LP3/BT/Student.sol\":616:624  students */\n      0x00\n        /* \"LP3/BT/Student.sol\":616:631  students.length */\n      dup1\n      sload\n      swap1\n      pop\n        /* \"LP3/BT/Student.sol\":610:615  index */\n      dup3\n        /* \"LP3/BT/Student.sol\":610:631  index<students.length */\n      lt\n        /* \"LP3/BT/Student.sol\":602:658  require(index<students.length,\"Student does not exist!\") */\n      tag_31\n      jumpi\n      mload(0x40)\n      0x08c379a000000000000000000000000000000000000000000000000000000000\n      dup2\n      mstore\n      0x04\n      add\n      tag_32\n      swap1\n      tag_33\n      jump\t// in\n    tag_32:\n      mload(0x40)\n      dup1\n      swap2\n      sub\n      swap1\n      revert\n    tag_31:\n        /* \"LP3/BT/Student.sol\":669:688  Student memory stud */\n      0x00\n        /* \"LP3/BT/Student.sol\":691:699  students */\n      dup1\n        /* \"LP3/BT/Student.sol\":700:705  index */\n      dup4\n        /* \"LP3/BT/Student.sol\":691:706  students[index] */\n      dup2\n      sload\n      dup2\n      lt\n      tag_34\n      jumpi\n      tag_35\n      tag_36\n      jump\t// in\n    tag_35:\n    tag_34:\n      swap1\n      0x00\n      mstore\n      keccak256(0x00, 0x20)\n      swap1\n      0x03\n      mul\n      add\n        /* \"LP3/BT/Student.sol\":669:706  Student memory stud = students[index] */\n      mload(0x40)\n      dup1\n      0x60\n      add\n      0x40\n      mstore\n      swap1\n      dup2\n      0x00\n      dup3\n      add\n      sload\n      dup2\n      mstore\n      0x20\n      add\n      0x01\n      dup3\n      add\n      dup1\n      sload\n      tag_38\n      swap1\n      tag_39\n      jump\t// in\n    tag_38:\n      dup1\n      0x1f\n      add\n      0x20\n      dup1\n      swap2\n      div\n      mul\n      0x20\n      add\n      mload(0x40)\n      swap1\n      dup2\n      add\n      0x40\n      mstore\n      dup1\n      swap3\n      swap2\n      swap1\n      dup2\n      dup2\n      mstore\n      0x20\n      add\n      dup3\n      dup1\n      sload\n      tag_40\n      swap1\n      tag_39\n      jump\t// in\n    tag_40:\n      dup1\n      iszero\n      tag_41\n      jumpi\n      dup1\n      0x1f\n      lt\n      tag_42\n      jumpi\n      0x0100\n      dup1\n      dup4\n      sload\n      div\n      mul\n      dup4\n      mstore\n      swap2\n      0x20\n      add\n      swap2\n      jump(tag_41)\n    tag_42:\n      dup3\n      add\n      swap2\n      swap1\n      0x00\n      mstore\n      keccak256(0x00, 0x20)\n      swap1\n    tag_43:\n      dup2\n      sload\n      dup2\n      mstore\n      swap1\n      0x01\n      add\n      swap1\n      0x20\n      add\n      dup1\n      dup4\n      gt\n      tag_43\n      jumpi\n      dup3\n      swap1\n      sub\n      0x1f\n      and\n      dup3\n      add\n      swap2\n    tag_41:\n      pop\n      pop\n      pop\n      pop\n      pop\n      dup2\n      mstore\n      0x20\n      add\n      0x02\n      dup3\n      add\n      dup1\n      sload\n      tag_44\n      swap1\n      tag_39\n      jump\t// in\n    tag_44:\n      dup1\n      0x1f\n      add\n      0x20\n      dup1\n      swap2\n      div\n      mul\n      0x20\n      add\n      mload(0x40)\n      swap1\n      dup2\n      add\n      0x40\n      mstore\n      dup1\n      swap3\n      swap2\n      swap1\n      dup2\n      dup2\n      mstore\n      0x20\n      add\n      dup3\n      dup1\n      sload\n      tag_45\n      swap1\n      tag_39\n      jump\t// in\n    tag_45:\n      dup1\n      iszero\n      tag_46\n      jumpi\n      dup1\n      0x1f\n      lt\n      tag_47\n      jumpi\n      0x0100\n      dup1\n      dup4\n      sload\n      div\n      mul\n      dup4\n      mstore\n      swap2\n      0x20\n      add\n      swap2\n      jump(tag_46)\n    tag_47:\n      dup3\n      add\n      swap2\n      swap1\n      0x00\n      mstore\n      keccak256(0x00, 0x20)\n      swap1\n    tag_48:\n      dup2\n      sload\n      dup2\n      mstore\n      swap1\n      0x01\n      add\n      swap1\n      0x20\n      add\n      dup1\n      dup4\n      gt\n      tag_48\n      jumpi\n      dup3\n      swap1\n      sub\n      0x1f\n      and\n      dup3\n      add\n      swap2\n    tag_46:\n      pop\n      pop\n      pop\n      pop\n      pop\n      dup2\n      mstore\n      pop\n      pop\n      swap1\n      pop\n        /* \"LP3/BT/Student.sol\":724:728  stud */\n      dup1\n        /* \"LP3/BT/Student.sol\":717:728  return stud */\n      swap2\n      pop\n      pop\n        /* \"LP3/BT/Student.sol\":523:736  function getStudent(uint index) public view returns (Student memory){... */\n      swap2\n      swap1\n      pop\n      jump\t// out\n        /* \"LP3/BT/Student.sol\":223:413  function addStudents(uint _age, string memory _name, string memory _major) public{... */\n    tag_26:\n        /* \"LP3/BT/Student.sol\":315:340  Student memory newStudent */\n      0x00\n        /* \"LP3/BT/Student.sol\":343:369  Student(_age,_name,_major) */\n      mload(0x40)\n      dup1\n      0x60\n      add\n      0x40\n      mstore\n      dup1\n        /* \"LP3/BT/Student.sol\":351:355  _age */\n      dup6\n        /* \"LP3/BT/Student.sol\":343:369  Student(_age,_name,_major) */\n      dup2\n      mstore\n      0x20\n      add\n        /* \"LP3/BT/Student.sol\":356:361  _name */\n      dup5\n        /* \"LP3/BT/Student.sol\":343:369  Student(_age,_name,_major) */\n      dup2\n      mstore\n      0x20\n      add\n        /* \"LP3/BT/Student.sol\":362:368  _major */\n      dup4\n        /* \"LP3/BT/Student.sol\":343:369  Student(_age,_name,_major) */\n      dup2\n      mstore\n      pop\n        /* \"LP3/BT/Student.sol\":315:369  Student memory newStudent = Student(_age,_name,_major) */\n      swap1\n      pop\n        /* \"LP3/BT/Student.sol\":380:388  students */\n      0x00\n        /* \"LP3/BT/Student.sol\":394:404  newStudent */\n      dup2\n        /* \"LP3/BT/Student.sol\":380:405  students.push(newStudent) */\n      swap1\n      dup1\n      0x01\n      dup2\n      sload\n      add\n      dup1\n      dup3\n      sstore\n      dup1\n      swap2\n      pop\n      pop\n      0x01\n      swap1\n      sub\n      swap1\n      0x00\n      mstore\n      keccak256(0x00, 0x20)\n      swap1\n      0x03\n      mul\n      add\n      0x00\n      swap1\n      swap2\n      swap1\n      swap2\n      swap1\n      swap2\n      pop\n      0x00\n      dup3\n      add\n      mload\n      dup2\n      0x00\n      add\n      sstore\n      0x20\n      dup3\n      add\n      mload\n      dup2\n      0x01\n      add\n      swap1\n      dup2\n      tag_51\n      swap2\n      swap1\n      tag_52\n      jump\t// in\n    tag_51:\n      pop\n      0x40\n      dup3\n      add\n      mload\n      dup2\n      0x02\n      add\n      swap1\n      dup2\n      tag_53\n      swap2\n      swap1\n      tag_52\n      jump\t// in\n    tag_53:\n      pop\n      pop\n      pop\n        /* \"LP3/BT/Student.sol\":304:413  {... */\n      pop\n        /* \"LP3/BT/Student.sol\":223:413  function addStudents(uint _age, string memory _name, string memory _major) public{... */\n      pop\n      pop\n      pop\n      jump\t// out\n    tag_29:\n      mload(0x40)\n      dup1\n      0x60\n      add\n      0x40\n      mstore\n      dup1\n      0x00\n      dup2\n      mstore\n      0x20\n      add\n      0x60\n      dup2\n      mstore\n      0x20\n      add\n      0x60\n      dup2\n      mstore\n      pop\n      swap1\n      jump\t// out\n        /* \"#utility.yul\":7:84   */\n    tag_54:\n        /* \"#utility.yul\":44:51   */\n      0x00\n        /* \"#utility.yul\":73:78   */\n      dup2\n        /* \"#utility.yul\":62:78   */\n      swap1\n      pop\n        /* \"#utility.yul\":7:84   */\n      swap2\n      swap1\n      pop\n      jump\t// out\n        /* \"#utility.yul\":90:208   */\n    tag_55:\n        /* \"#utility.yul\":177:201   */\n      tag_99\n        /* \"#utility.yul\":195:200   */\n      dup2\n        /* \"#utility.yul\":177:201   */\n      tag_54\n      jump\t// in\n    tag_99:\n        /* \"#utility.yul\":172:175   */\n      dup3\n        /* \"#utility.yul\":165:202   */\n      mstore\n        /* \"#utility.yul\":90:208   */\n      pop\n      pop\n      jump\t// out\n        /* \"#utility.yul\":214:436   */\n    tag_14:\n        /* \"#utility.yul\":307:311   */\n      0x00\n        /* \"#utility.yul\":345:347   */\n      0x20\n        /* \"#utility.yul\":334:343   */\n      dup3\n        /* \"#utility.yul\":330:348   */\n      add\n        /* \"#utility.yul\":322:348   */\n      swap1\n      pop\n        /* \"#utility.yul\":358:429   */\n      tag_101\n        /* \"#utility.yul\":426:427   */\n      0x00\n        /* \"#utility.yul\":415:424   */\n      dup4\n        /* \"#utility.yul\":411:428   */\n      add\n        /* \"#utility.yul\":402:408   */\n      dup5\n        /* \"#utility.yul\":358:429   */\n      tag_55\n      jump\t// in\n    tag_101:\n        /* \"#utility.yul\":214:436   */\n      swap3\n      swap2\n      pop\n      pop\n      jump\t// out\n        /* \"#utility.yul\":442:517   */\n    tag_56:\n        /* \"#utility.yul\":475:481   */\n      0x00\n        /* \"#utility.yul\":508:510   */\n      0x40\n        /* \"#utility.yul\":502:511   */\n      mload\n        /* \"#utility.yul\":492:511   */\n      swap1\n      pop\n        /* \"#utility.yul\":442:517   */\n      swap1\n      jump\t// out\n        /* \"#utility.yul\":523:640   */\n    tag_57:\n        /* \"#utility.yul\":632:633   */\n      0x00\n        /* \"#utility.yul\":629:630   */\n      dup1\n        /* \"#utility.yul\":622:634   */\n      revert\n        /* \"#utility.yul\":646:763   */\n    tag_58:\n        /* \"#utility.yul\":755:756   */\n      0x00\n        /* \"#utility.yul\":752:753   */\n      dup1\n        /* \"#utility.yul\":745:757   */\n      revert\n        /* \"#utility.yul\":769:891   */\n    tag_59:\n        /* \"#utility.yul\":842:866   */\n      tag_106\n        /* \"#utility.yul\":860:865   */\n      dup2\n        /* \"#utility.yul\":842:866   */\n      tag_54\n      jump\t// in\n    tag_106:\n        /* \"#utility.yul\":835:840   */\n      dup2\n        /* \"#utility.yul\":832:867   */\n      eq\n        /* \"#utility.yul\":822:885   */\n      tag_107\n      jumpi\n        /* \"#utility.yul\":881:882   */\n      0x00\n        /* \"#utility.yul\":878:879   */\n      dup1\n        /* \"#utility.yul\":871:883   */\n      revert\n        /* \"#utility.yul\":822:885   */\n    tag_107:\n        /* \"#utility.yul\":769:891   */\n      pop\n      jump\t// out\n        /* \"#utility.yul\":897:1036   */\n    tag_60:\n        /* \"#utility.yul\":943:948   */\n      0x00\n        /* \"#utility.yul\":981:987   */\n      dup2\n        /* \"#utility.yul\":968:988   */\n      calldataload\n        /* \"#utility.yul\":959:988   */\n      swap1\n      pop\n        /* \"#utility.yul\":997:1030   */\n      tag_109\n        /* \"#utility.yul\":1024:1029   */\n      dup2\n        /* \"#utility.yul\":997:1030   */\n      tag_59\n      jump\t// in\n    tag_109:\n        /* \"#utility.yul\":897:1036   */\n      swap3\n      swap2\n      pop\n      pop\n      jump\t// out\n        /* \"#utility.yul\":1042:1371   */\n    tag_18:\n        /* \"#utility.yul\":1101:1107   */\n      0x00\n        /* \"#utility.yul\":1150:1152   */\n      0x20\n        /* \"#utility.yul\":1138:1147   */\n      dup3\n        /* \"#utility.yul\":1129:1136   */\n      dup5\n        /* \"#utility.yul\":1125:1148   */\n      sub\n        /* \"#utility.yul\":1121:1153   */\n      slt\n        /* \"#utility.yul\":1118:1237   */\n      iszero\n      tag_111\n      jumpi\n        /* \"#utility.yul\":1156:1235   */\n      tag_112\n      tag_57\n      jump\t// in\n    tag_112:\n        /* \"#utility.yul\":1118:1237   */\n    tag_111:\n        /* \"#utility.yul\":1276:1277   */\n      0x00\n        /* \"#utility.yul\":1301:1354   */\n      tag_113\n        /* \"#utility.yul\":1346:1353   */\n      dup5\n        /* \"#utility.yul\":1337:1343   */\n      dup3\n        /* \"#utility.yul\":1326:1335   */\n      dup6\n        /* \"#utility.yul\":1322:1344   */\n      add\n        /* \"#utility.yul\":1301:1354   */\n      tag_60\n      jump\t// in\n    tag_113:\n        /* \"#utility.yul\":1291:1354   */\n      swap2\n      pop\n        /* \"#utility.yul\":1247:1364   */\n      pop\n        /* \"#utility.yul\":1042:1371   */\n      swap3\n      swap2\n      pop\n      pop\n      jump\t// out\n        /* \"#utility.yul\":1377:1485   */\n    tag_61:\n        /* \"#utility.yul\":1454:1478   */\n      tag_115\n        /* \"#utility.yul\":1472:1477   */\n      dup2\n        /* \"#utility.yul\":1454:1478   */\n      tag_54\n      jump\t// in\n    tag_115:\n        /* \"#utility.yul\":1449:1452   */\n      dup3\n        /* \"#utility.yul\":1442:1479   */\n      mstore\n        /* \"#utility.yul\":1377:1485   */\n      pop\n      pop\n      jump\t// out\n        /* \"#utility.yul\":1491:1590   */\n    tag_62:\n        /* \"#utility.yul\":1543:1549   */\n      0x00\n        /* \"#utility.yul\":1577:1582   */\n      dup2\n        /* \"#utility.yul\":1571:1583   */\n      mload\n        /* \"#utility.yul\":1561:1583   */\n      swap1\n      pop\n        /* \"#utility.yul\":1491:1590   */\n      swap2\n      swap1\n      pop\n      jump\t// out\n        /* \"#utility.yul\":1596:1755   */\n    tag_63:\n        /* \"#utility.yul\":1670:1681   */\n      0x00\n        /* \"#utility.yul\":1704:1710   */\n      dup3\n        /* \"#utility.yul\":1699:1702   */\n      dup3\n        /* \"#utility.yul\":1692:1711   */\n      mstore\n        /* \"#utility.yul\":1744:1748   */\n      0x20\n        /* \"#utility.yul\":1739:1742   */\n      dup3\n        /* \"#utility.yul\":1735:1749   */\n      add\n        /* \"#utility.yul\":1720:1749   */\n      swap1\n      pop\n        /* \"#utility.yul\":1596:1755   */\n      swap3\n      swap2\n      pop\n      pop\n      jump\t// out\n        /* \"#utility.yul\":1761:1900   */\n    tag_64:\n        /* \"#utility.yul\":1850:1856   */\n      dup3\n        /* \"#utility.yul\":1845:1848   */\n      dup2\n        /* \"#utility.yul\":1840:1843   */\n      dup4\n        /* \"#utility.yul\":1834:1857   */\n      mcopy\n        /* \"#utility.yul\":1891:1892   */\n      0x00\n        /* \"#utility.yul\":1882:1888   */\n      dup4\n        /* \"#utility.yul\":1877:1880   */\n      dup4\n        /* \"#utility.yul\":1873:1889   */\n      add\n        /* \"#utility.yul\":1866:1893   */\n      mstore\n        /* \"#utility.yul\":1761:1900   */\n      pop\n      pop\n      pop\n      jump\t// out\n        /* \"#utility.yul\":1906:2008   */\n    tag_65:\n        /* \"#utility.yul\":1947:1953   */\n      0x00\n        /* \"#utility.yul\":1998:2000   */\n      0x1f\n        /* \"#utility.yul\":1994:2001   */\n      not\n        /* \"#utility.yul\":1989:1991   */\n      0x1f\n        /* \"#utility.yul\":1982:1987   */\n      dup4\n        /* \"#utility.yul\":1978:1992   */\n      add\n        /* \"#utility.yul\":1974:2002   */\n      and\n        /* \"#utility.yul\":1964:2002   */\n      swap1\n      pop\n        /* \"#utility.yul\":1906:2008   */\n      swap2\n      swap1\n      pop\n      jump\t// out\n        /* \"#utility.yul\":2014:2371   */\n    tag_66:\n        /* \"#utility.yul\":2092:2095   */\n      0x00\n        /* \"#utility.yul\":2120:2159   */\n      tag_121\n        /* \"#utility.yul\":2153:2158   */\n      dup3\n        /* \"#utility.yul\":2120:2159   */\n      tag_62\n      jump\t// in\n    tag_121:\n        /* \"#utility.yul\":2175:2236   */\n      tag_122\n        /* \"#utility.yul\":2229:2235   */\n      dup2\n        /* \"#utility.yul\":2224:2227   */\n      dup6\n        /* \"#utility.yul\":2175:2236   */\n      tag_63\n      jump\t// in\n    tag_122:\n        /* \"#utility.yul\":2168:2236   */\n      swap4\n      pop\n        /* \"#utility.yul\":2245:2310   */\n      tag_123\n        /* \"#utility.yul\":2303:2309   */\n      dup2\n        /* \"#utility.yul\":2298:2301   */\n      dup6\n        /* \"#utility.yul\":2291:2295   */\n      0x20\n        /* \"#utility.yul\":2284:2289   */\n      dup7\n        /* \"#utility.yul\":2280:2296   */\n      add\n        /* \"#utility.yul\":2245:2310   */\n      tag_64\n      jump\t// in\n    tag_123:\n        /* \"#utility.yul\":2335:2364   */\n      tag_124\n        /* \"#utility.yul\":2357:2363   */\n      dup2\n        /* \"#utility.yul\":2335:2364   */\n      tag_65\n      jump\t// in\n    tag_124:\n        /* \"#utility.yul\":2330:2333   */\n      dup5\n        /* \"#utility.yul\":2326:2365   */\n      add\n        /* \"#utility.yul\":2319:2365   */\n      swap2\n      pop\n        /* \"#utility.yul\":2096:2371   */\n      pop\n        /* \"#utility.yul\":2014:2371   */\n      swap3\n      swap2\n      pop\n      pop\n      jump\t// out\n        /* \"#utility.yul\":2441:3286   */\n    tag_67:\n        /* \"#utility.yul\":2554:2557   */\n      0x00\n        /* \"#utility.yul\":2590:2594   */\n      0x60\n        /* \"#utility.yul\":2585:2588   */\n      dup4\n        /* \"#utility.yul\":2581:2595   */\n      add\n        /* \"#utility.yul\":2676:2680   */\n      0x00\n        /* \"#utility.yul\":2669:2674   */\n      dup4\n        /* \"#utility.yul\":2665:2681   */\n      add\n        /* \"#utility.yul\":2659:2682   */\n      mload\n        /* \"#utility.yul\":2695:2758   */\n      tag_126\n        /* \"#utility.yul\":2752:2756   */\n      0x00\n        /* \"#utility.yul\":2747:2750   */\n      dup7\n        /* \"#utility.yul\":2743:2757   */\n      add\n        /* \"#utility.yul\":2729:2741   */\n      dup3\n        /* \"#utility.yul\":2695:2758   */\n      tag_61\n      jump\t// in\n    tag_126:\n        /* \"#utility.yul\":2605:2768   */\n      pop\n        /* \"#utility.yul\":2850:2854   */\n      0x20\n        /* \"#utility.yul\":2843:2848   */\n      dup4\n        /* \"#utility.yul\":2839:2855   */\n      add\n        /* \"#utility.yul\":2833:2856   */\n      mload\n        /* \"#utility.yul\":2903:2906   */\n      dup5\n        /* \"#utility.yul\":2897:2901   */\n      dup3\n        /* \"#utility.yul\":2893:2907   */\n      sub\n        /* \"#utility.yul\":2886:2890   */\n      0x20\n        /* \"#utility.yul\":2881:2884   */\n      dup7\n        /* \"#utility.yul\":2877:2891   */\n      add\n        /* \"#utility.yul\":2870:2908   */\n      mstore\n        /* \"#utility.yul\":2929:3002   */\n      tag_127\n        /* \"#utility.yul\":2997:3001   */\n      dup3\n        /* \"#utility.yul\":2983:2995   */\n      dup3\n        /* \"#utility.yul\":2929:3002   */\n      tag_66\n      jump\t// in\n    tag_127:\n        /* \"#utility.yul\":2921:3002   */\n      swap2\n      pop\n        /* \"#utility.yul\":2778:3013   */\n      pop\n        /* \"#utility.yul\":3096:3100   */\n      0x40\n        /* \"#utility.yul\":3089:3094   */\n      dup4\n        /* \"#utility.yul\":3085:3101   */\n      add\n        /* \"#utility.yul\":3079:3102   */\n      mload\n        /* \"#utility.yul\":3149:3152   */\n      dup5\n        /* \"#utility.yul\":3143:3147   */\n      dup3\n        /* \"#utility.yul\":3139:3153   */\n      sub\n        /* \"#utility.yul\":3132:3136   */\n      0x40\n        /* \"#utility.yul\":3127:3130   */\n      dup7\n        /* \"#utility.yul\":3123:3137   */\n      add\n        /* \"#utility.yul\":3116:3154   */\n      mstore\n        /* \"#utility.yul\":3175:3248   */\n      tag_128\n        /* \"#utility.yul\":3243:3247   */\n      dup3\n        /* \"#utility.yul\":3229:3241   */\n      dup3\n        /* \"#utility.yul\":3175:3248   */\n      tag_66\n      jump\t// in\n    tag_128:\n        /* \"#utility.yul\":3167:3248   */\n      swap2\n      pop\n        /* \"#utility.yul\":3023:3259   */\n      pop\n        /* \"#utility.yul\":3276:3280   */\n      dup1\n        /* \"#utility.yul\":3269:3280   */\n      swap2\n      pop\n        /* \"#utility.yul\":2559:3286   */\n      pop\n        /* \"#utility.yul\":2441:3286   */\n      swap3\n      swap2\n      pop\n      pop\n      jump\t// out\n        /* \"#utility.yul\":3292:3653   */\n    tag_21:\n        /* \"#utility.yul\":3429:3433   */\n      0x00\n        /* \"#utility.yul\":3467:3469   */\n      0x20\n        /* \"#utility.yul\":3456:3465   */\n      dup3\n        /* \"#utility.yul\":3452:3470   */\n      add\n        /* \"#utility.yul\":3444:3470   */\n      swap1\n      pop\n        /* \"#utility.yul\":3516:3525   */\n      dup2\n        /* \"#utility.yul\":3510:3514   */\n      dup2\n        /* \"#utility.yul\":3506:3526   */\n      sub\n        /* \"#utility.yul\":3502:3503   */\n      0x00\n        /* \"#utility.yul\":3491:3500   */\n      dup4\n        /* \"#utility.yul\":3487:3504   */\n      add\n        /* \"#utility.yul\":3480:3527   */\n      mstore\n        /* \"#utility.yul\":3544:3646   */\n      tag_130\n        /* \"#utility.yul\":3641:3645   */\n      dup2\n        /* \"#utility.yul\":3632:3638   */\n      dup5\n        /* \"#utility.yul\":3544:3646   */\n      tag_67\n      jump\t// in\n    tag_130:\n        /* \"#utility.yul\":3536:3646   */\n      swap1\n      pop\n        /* \"#utility.yul\":3292:3653   */\n      swap3\n      swap2\n      pop\n      pop\n      jump\t// out\n        /* \"#utility.yul\":3659:3776   */\n    tag_68:\n        /* \"#utility.yul\":3768:3769   */\n      0x00\n        /* \"#utility.yul\":3765:3766   */\n      dup1\n        /* \"#utility.yul\":3758:3770   */\n      revert\n        /* \"#utility.yul\":3782:3899   */\n    tag_69:\n        /* \"#utility.yul\":3891:3892   */\n      0x00\n        /* \"#utility.yul\":3888:3889   */\n      dup1\n        /* \"#utility.yul\":3881:3893   */\n      revert\n        /* \"#utility.yul\":3905:4085   */\n    tag_70:\n        /* \"#utility.yul\":3953:4030   */\n      0x4e487b7100000000000000000000000000000000000000000000000000000000\n        /* \"#utility.yul\":3950:3951   */\n      0x00\n        /* \"#utility.yul\":3943:4031   */\n      mstore\n        /* \"#utility.yul\":4050:4054   */\n      0x41\n        /* \"#utility.yul\":4047:4048   */\n      0x04\n        /* \"#utility.yul\":4040:4055   */\n      mstore\n        /* \"#utility.yul\":4074:4078   */\n      0x24\n        /* \"#utility.yul\":4071:4072   */\n      0x00\n        /* \"#utility.yul\":4064:4079   */\n      revert\n        /* \"#utility.yul\":4091:4372   */\n    tag_71:\n        /* \"#utility.yul\":4174:4201   */\n      tag_135\n        /* \"#utility.yul\":4196:4200   */\n      dup3\n        /* \"#utility.yul\":4174:4201   */\n      tag_65\n      jump\t// in\n    tag_135:\n        /* \"#utility.yul\":4166:4172   */\n      dup2\n        /* \"#utility.yul\":4162:4202   */\n      add\n        /* \"#utility.yul\":4304:4310   */\n      dup2\n        /* \"#utility.yul\":4292:4302   */\n      dup2\n        /* \"#utility.yul\":4289:4311   */\n      lt\n        /* \"#utility.yul\":4268:4286   */\n      0xffffffffffffffff\n        /* \"#utility.yul\":4256:4266   */\n      dup3\n        /* \"#utility.yul\":4253:4287   */\n      gt\n        /* \"#utility.yul\":4250:4312   */\n      or\n        /* \"#utility.yul\":4247:4335   */\n      iszero\n      tag_136\n      jumpi\n        /* \"#utility.yul\":4315:4333   */\n      tag_137\n      tag_70\n      jump\t// in\n    tag_137:\n        /* \"#utility.yul\":4247:4335   */\n    tag_136:\n        /* \"#utility.yul\":4355:4365   */\n      dup1\n        /* \"#utility.yul\":4351:4353   */\n      0x40\n        /* \"#utility.yul\":4344:4366   */\n      mstore\n        /* \"#utility.yul\":4134:4372   */\n      pop\n        /* \"#utility.yul\":4091:4372   */\n      pop\n      pop\n      jump\t// out\n        /* \"#utility.yul\":4378:4507   */\n    tag_72:\n        /* \"#utility.yul\":4412:4418   */\n      0x00\n        /* \"#utility.yul\":4439:4459   */\n      tag_139\n      tag_56\n      jump\t// in\n    tag_139:\n        /* \"#utility.yul\":4429:4459   */\n      swap1\n      pop\n        /* \"#utility.yul\":4468:4501   */\n      tag_140\n        /* \"#utility.yul\":4496:4500   */\n      dup3\n        /* \"#utility.yul\":4488:4494   */\n      dup3\n        /* \"#utility.yul\":4468:4501   */\n      tag_71\n      jump\t// in\n    tag_140:\n        /* \"#utility.yul\":4378:4507   */\n      swap2\n      swap1\n      pop\n      jump\t// out\n        /* \"#utility.yul\":4513:4821   */\n    tag_73:\n        /* \"#utility.yul\":4575:4579   */\n      0x00\n        /* \"#utility.yul\":4665:4683   */\n      0xffffffffffffffff\n        /* \"#utility.yul\":4657:4663   */\n      dup3\n        /* \"#utility.yul\":4654:4684   */\n      gt\n        /* \"#utility.yul\":4651:4707   */\n      iszero\n      tag_142\n      jumpi\n        /* \"#utility.yul\":4687:4705   */\n      tag_143\n      tag_70\n      jump\t// in\n    tag_143:\n        /* \"#utility.yul\":4651:4707   */\n    tag_142:\n        /* \"#utility.yul\":4725:4754   */\n      tag_144\n        /* \"#utility.yul\":4747:4753   */\n      dup3\n        /* \"#utility.yul\":4725:4754   */\n      tag_65\n      jump\t// in\n    tag_144:\n        /* \"#utility.yul\":4717:4754   */\n      swap1\n      pop\n        /* \"#utility.yul\":4809:4813   */\n      0x20\n        /* \"#utility.yul\":4803:4807   */\n      dup2\n        /* \"#utility.yul\":4799:4814   */\n      add\n        /* \"#utility.yul\":4791:4814   */\n      swap1\n      pop\n        /* \"#utility.yul\":4513:4821   */\n      swap2\n      swap1\n      pop\n      jump\t// out\n        /* \"#utility.yul\":4827:4975   */\n    tag_74:\n        /* \"#utility.yul\":4925:4931   */\n      dup3\n        /* \"#utility.yul\":4920:4923   */\n      dup2\n        /* \"#utility.yul\":4915:4918   */\n      dup4\n        /* \"#utility.yul\":4902:4932   */\n      calldatacopy\n        /* \"#utility.yul\":4966:4967   */\n      0x00\n        /* \"#utility.yul\":4957:4963   */\n      dup4\n        /* \"#utility.yul\":4952:4955   */\n      dup4\n        /* \"#utility.yul\":4948:4964   */\n      add\n        /* \"#utility.yul\":4941:4968   */\n      mstore\n        /* \"#utility.yul\":4827:4975   */\n      pop\n      pop\n      pop\n      jump\t// out\n        /* \"#utility.yul\":4981:5406   */\n    tag_75:\n        /* \"#utility.yul\":5059:5064   */\n      0x00\n        /* \"#utility.yul\":5084:5150   */\n      tag_147\n        /* \"#utility.yul\":5100:5149   */\n      tag_148\n        /* \"#utility.yul\":5142:5148   */\n      dup5\n        /* \"#utility.yul\":5100:5149   */\n      tag_73\n      jump\t// in\n    tag_148:\n        /* \"#utility.yul\":5084:5150   */\n      tag_72\n      jump\t// in\n    tag_147:\n        /* \"#utility.yul\":5075:5150   */\n      swap1\n      pop\n        /* \"#utility.yul\":5173:5179   */\n      dup3\n        /* \"#utility.yul\":5166:5171   */\n      dup2\n        /* \"#utility.yul\":5159:5180   */\n      mstore\n        /* \"#utility.yul\":5211:5215   */\n      0x20\n        /* \"#utility.yul\":5204:5209   */\n      dup2\n        /* \"#utility.yul\":5200:5216   */\n      add\n        /* \"#utility.yul\":5249:5252   */\n      dup5\n        /* \"#utility.yul\":5240:5246   */\n      dup5\n        /* \"#utility.yul\":5235:5238   */\n      dup5\n        /* \"#utility.yul\":5231:5247   */\n      add\n        /* \"#utility.yul\":5228:5253   */\n      gt\n        /* \"#utility.yul\":5225:5337   */\n      iszero\n      tag_149\n      jumpi\n        /* \"#utility.yul\":5256:5335   */\n      tag_150\n      tag_69\n      jump\t// in\n    tag_150:\n        /* \"#utility.yul\":5225:5337   */\n    tag_149:\n        /* \"#utility.yul\":5346:5400   */\n      tag_151\n        /* \"#utility.yul\":5393:5399   */\n      dup5\n        /* \"#utility.yul\":5388:5391   */\n      dup3\n        /* \"#utility.yul\":5383:5386   */\n      dup6\n        /* \"#utility.yul\":5346:5400   */\n      tag_74\n      jump\t// in\n    tag_151:\n        /* \"#utility.yul\":5065:5406   */\n      pop\n        /* \"#utility.yul\":4981:5406   */\n      swap4\n      swap3\n      pop\n      pop\n      pop\n      jump\t// out\n        /* \"#utility.yul\":5426:5766   */\n    tag_76:\n        /* \"#utility.yul\":5482:5487   */\n      0x00\n        /* \"#utility.yul\":5531:5534   */\n      dup3\n        /* \"#utility.yul\":5524:5528   */\n      0x1f\n        /* \"#utility.yul\":5516:5522   */\n      dup4\n        /* \"#utility.yul\":5512:5529   */\n      add\n        /* \"#utility.yul\":5508:5535   */\n      slt\n        /* \"#utility.yul\":5498:5620   */\n      tag_153\n      jumpi\n        /* \"#utility.yul\":5539:5618   */\n      tag_154\n      tag_68\n      jump\t// in\n    tag_154:\n        /* \"#utility.yul\":5498:5620   */\n    tag_153:\n        /* \"#utility.yul\":5656:5662   */\n      dup2\n        /* \"#utility.yul\":5643:5663   */\n      calldataload\n        /* \"#utility.yul\":5681:5760   */\n      tag_155\n        /* \"#utility.yul\":5756:5759   */\n      dup5\n        /* \"#utility.yul\":5748:5754   */\n      dup3\n        /* \"#utility.yul\":5741:5745   */\n      0x20\n        /* \"#utility.yul\":5733:5739   */\n      dup7\n        /* \"#utility.yul\":5729:5746   */\n      add\n        /* \"#utility.yul\":5681:5760   */\n      tag_75\n      jump\t// in\n    tag_155:\n        /* \"#utility.yul\":5672:5760   */\n      swap2\n      pop\n        /* \"#utility.yul\":5488:5766   */\n      pop\n        /* \"#utility.yul\":5426:5766   */\n      swap3\n      swap2\n      pop\n      pop\n      jump\t// out\n        /* \"#utility.yul\":5772:6751   */\n    tag_25:\n        /* \"#utility.yul\":5869:5875   */\n      0x00\n        /* \"#utility.yul\":5877:5883   */\n      dup1\n        /* \"#utility.yul\":5885:5891   */\n      0x00\n        /* \"#utility.yul\":5934:5936   */\n      0x60\n        /* \"#utility.yul\":5922:5931   */\n      dup5\n        /* \"#utility.yul\":5913:5920   */\n      dup7\n        /* \"#utility.yul\":5909:5932   */\n      sub\n        /* \"#utility.yul\":5905:5937   */\n      slt\n        /* \"#utility.yul\":5902:6021   */\n      iszero\n      tag_157\n      jumpi\n        /* \"#utility.yul\":5940:6019   */\n      tag_158\n      tag_57\n      jump\t// in\n    tag_158:\n        /* \"#utility.yul\":5902:6021   */\n    tag_157:\n        /* \"#utility.yul\":6060:6061   */\n      0x00\n        /* \"#utility.yul\":6085:6138   */\n      tag_159\n        /* \"#utility.yul\":6130:6137   */\n      dup7\n        /* \"#utility.yul\":6121:6127   */\n      dup3\n        /* \"#utility.yul\":6110:6119   */\n      dup8\n        /* \"#utility.yul\":6106:6128   */\n      add\n        /* \"#utility.yul\":6085:6138   */\n      tag_60\n      jump\t// in\n    tag_159:\n        /* \"#utility.yul\":6075:6138   */\n      swap4\n      pop\n        /* \"#utility.yul\":6031:6148   */\n      pop\n        /* \"#utility.yul\":6215:6217   */\n      0x20\n        /* \"#utility.yul\":6204:6213   */\n      dup5\n        /* \"#utility.yul\":6200:6218   */\n      add\n        /* \"#utility.yul\":6187:6219   */\n      calldataload\n        /* \"#utility.yul\":6246:6264   */\n      0xffffffffffffffff\n        /* \"#utility.yul\":6238:6244   */\n      dup2\n        /* \"#utility.yul\":6235:6265   */\n      gt\n        /* \"#utility.yul\":6232:6349   */\n      iszero\n      tag_160\n      jumpi\n        /* \"#utility.yul\":6268:6347   */\n      tag_161\n      tag_58\n      jump\t// in\n    tag_161:\n        /* \"#utility.yul\":6232:6349   */\n    tag_160:\n        /* \"#utility.yul\":6373:6436   */\n      tag_162\n        /* \"#utility.yul\":6428:6435   */\n      dup7\n        /* \"#utility.yul\":6419:6425   */\n      dup3\n        /* \"#utility.yul\":6408:6417   */\n      dup8\n        /* \"#utility.yul\":6404:6426   */\n      add\n        /* \"#utility.yul\":6373:6436   */\n      tag_76\n      jump\t// in\n    tag_162:\n        /* \"#utility.yul\":6363:6436   */\n      swap3\n      pop\n        /* \"#utility.yul\":6158:6446   */\n      pop\n        /* \"#utility.yul\":6513:6515   */\n      0x40\n        /* \"#utility.yul\":6502:6511   */\n      dup5\n        /* \"#utility.yul\":6498:6516   */\n      add\n        /* \"#utility.yul\":6485:6517   */\n      calldataload\n        /* \"#utility.yul\":6544:6562   */\n      0xffffffffffffffff\n        /* \"#utility.yul\":6536:6542   */\n      dup2\n        /* \"#utility.yul\":6533:6563   */\n      gt\n        /* \"#utility.yul\":6530:6647   */\n      iszero\n      tag_163\n      jumpi\n        /* \"#utility.yul\":6566:6645   */\n      tag_164\n      tag_58\n      jump\t// in\n    tag_164:\n        /* \"#utility.yul\":6530:6647   */\n    tag_163:\n        /* \"#utility.yul\":6671:6734   */\n      tag_165\n        /* \"#utility.yul\":6726:6733   */\n      dup7\n        /* \"#utility.yul\":6717:6723   */\n      dup3\n        /* \"#utility.yul\":6706:6715   */\n      dup8\n        /* \"#utility.yul\":6702:6724   */\n      add\n        /* \"#utility.yul\":6671:6734   */\n      tag_76\n      jump\t// in\n    tag_165:\n        /* \"#utility.yul\":6661:6734   */\n      swap2\n      pop\n        /* \"#utility.yul\":6456:6744   */\n      pop\n        /* \"#utility.yul\":5772:6751   */\n      swap3\n      pop\n      swap3\n      pop\n      swap3\n      jump\t// out\n        /* \"#utility.yul\":6757:6926   */\n    tag_77:\n        /* \"#utility.yul\":6841:6852   */\n      0x00\n        /* \"#utility.yul\":6875:6881   */\n      dup3\n        /* \"#utility.yul\":6870:6873   */\n      dup3\n        /* \"#utility.yul\":6863:6882   */\n      mstore\n        /* \"#utility.yul\":6915:6919   */\n      0x20\n        /* \"#utility.yul\":6910:6913   */\n      dup3\n        /* \"#utility.yul\":6906:6920   */\n      add\n        /* \"#utility.yul\":6891:6920   */\n      swap1\n      pop\n        /* \"#utility.yul\":6757:6926   */\n      swap3\n      swap2\n      pop\n      pop\n      jump\t// out\n        /* \"#utility.yul\":6932:7105   */\n    tag_78:\n        /* \"#utility.yul\":7072:7097   */\n      0x53747564656e7420646f6573206e6f7420657869737421000000000000000000\n        /* \"#utility.yul\":7068:7069   */\n      0x00\n        /* \"#utility.yul\":7060:7066   */\n      dup3\n        /* \"#utility.yul\":7056:7070   */\n      add\n        /* \"#utility.yul\":7049:7098   */\n      mstore\n        /* \"#utility.yul\":6932:7105   */\n      pop\n      jump\t// out\n        /* \"#utility.yul\":7111:7477   */\n    tag_79:\n        /* \"#utility.yul\":7253:7256   */\n      0x00\n        /* \"#utility.yul\":7274:7341   */\n      tag_169\n        /* \"#utility.yul\":7338:7340   */\n      0x17\n        /* \"#utility.yul\":7333:7336   */\n      dup4\n        /* \"#utility.yul\":7274:7341   */\n      tag_77\n      jump\t// in\n    tag_169:\n        /* \"#utility.yul\":7267:7341   */\n      swap2\n      pop\n        /* \"#utility.yul\":7350:7443   */\n      tag_170\n        /* \"#utility.yul\":7439:7442   */\n      dup3\n        /* \"#utility.yul\":7350:7443   */\n      tag_78\n      jump\t// in\n    tag_170:\n        /* \"#utility.yul\":7468:7470   */\n      0x20\n        /* \"#utility.yul\":7463:7466   */\n      dup3\n        /* \"#utility.yul\":7459:7471   */\n      add\n        /* \"#utility.yul\":7452:7471   */\n      swap1\n      pop\n        /* \"#utility.yul\":7111:7477   */\n      swap2\n      swap1\n      pop\n      jump\t// out\n        /* \"#utility.yul\":7483:7902   */\n    tag_33:\n        /* \"#utility.yul\":7649:7653   */\n      0x00\n        /* \"#utility.yul\":7687:7689   */\n      0x20\n        /* \"#utility.yul\":7676:7685   */\n      dup3\n        /* \"#utility.yul\":7672:7690   */\n      add\n        /* \"#utility.yul\":7664:7690   */\n      swap1\n      pop\n        /* \"#utility.yul\":7736:7745   */\n      dup2\n        /* \"#utility.yul\":7730:7734   */\n      dup2\n        /* \"#utility.yul\":7726:7746   */\n      sub\n        /* \"#utility.yul\":7722:7723   */\n      0x00\n        /* \"#utility.yul\":7711:7720   */\n      dup4\n        /* \"#utility.yul\":7707:7724   */\n      add\n        /* \"#utility.yul\":7700:7747   */\n      mstore\n        /* \"#utility.yul\":7764:7895   */\n      tag_172\n        /* \"#utility.yul\":7890:7894   */\n      dup2\n        /* \"#utility.yul\":7764:7895   */\n      tag_79\n      jump\t// in\n    tag_172:\n        /* \"#utility.yul\":7756:7895   */\n      swap1\n      pop\n        /* \"#utility.yul\":7483:7902   */\n      swap2\n      swap1\n      pop\n      jump\t// out\n        /* \"#utility.yul\":7908:8088   */\n    tag_36:\n        /* \"#utility.yul\":7956:8033   */\n      0x4e487b7100000000000000000000000000000000000000000000000000000000\n        /* \"#utility.yul\":7953:7954   */\n      0x00\n        /* \"#utility.yul\":7946:8034   */\n      mstore\n        /* \"#utility.yul\":8053:8057   */\n      0x32\n        /* \"#utility.yul\":8050:8051   */\n      0x04\n        /* \"#utility.yul\":8043:8058   */\n      mstore\n        /* \"#utility.yul\":8077:8081   */\n      0x24\n        /* \"#utility.yul\":8074:8075   */\n      0x00\n        /* \"#utility.yul\":8067:8082   */\n      revert\n        /* \"#utility.yul\":8094:8274   */\n    tag_80:\n        /* \"#utility.yul\":8142:8219   */\n      0x4e487b7100000000000000000000000000000000000000000000000000000000\n        /* \"#utility.yul\":8139:8140   */\n      0x00\n        /* \"#utility.yul\":8132:8220   */\n      mstore\n        /* \"#utility.yul\":8239:8243   */\n      0x22\n        /* \"#utility.yul\":8236:8237   */\n      0x04\n        /* \"#utility.yul\":8229:8244   */\n      mstore\n        /* \"#utility.yul\":8263:8267   */\n      0x24\n        /* \"#utility.yul\":8260:8261   */\n      0x00\n        /* \"#utility.yul\":8253:8268   */\n      revert\n        /* \"#utility.yul\":8280:8600   */\n    tag_39:\n        /* \"#utility.yul\":8324:8330   */\n      0x00\n        /* \"#utility.yul\":8361:8362   */\n      0x02\n        /* \"#utility.yul\":8355:8359   */\n      dup3\n        /* \"#utility.yul\":8351:8363   */\n      div\n        /* \"#utility.yul\":8341:8363   */\n      swap1\n      pop\n        /* \"#utility.yul\":8408:8409   */\n      0x01\n        /* \"#utility.yul\":8402:8406   */\n      dup3\n        /* \"#utility.yul\":8398:8410   */\n      and\n        /* \"#utility.yul\":8429:8447   */\n      dup1\n        /* \"#utility.yul\":8419:8500   */\n      tag_176\n      jumpi\n        /* \"#utility.yul\":8485:8489   */\n      0x7f\n        /* \"#utility.yul\":8477:8483   */\n      dup3\n        /* \"#utility.yul\":8473:8490   */\n      and\n        /* \"#utility.yul\":8463:8490   */\n      swap2\n      pop\n        /* \"#utility.yul\":8419:8500   */\n    tag_176:\n        /* \"#utility.yul\":8547:8549   */\n      0x20\n        /* \"#utility.yul\":8539:8545   */\n      dup3\n        /* \"#utility.yul\":8536:8550   */\n      lt\n        /* \"#utility.yul\":8516:8534   */\n      dup2\n        /* \"#utility.yul\":8513:8551   */\n      sub\n        /* \"#utility.yul\":8510:8594   */\n      tag_177\n      jumpi\n        /* \"#utility.yul\":8566:8584   */\n      tag_178\n      tag_80\n      jump\t// in\n    tag_178:\n        /* \"#utility.yul\":8510:8594   */\n    tag_177:\n        /* \"#utility.yul\":8331:8600   */\n      pop\n        /* \"#utility.yul\":8280:8600   */\n      swap2\n      swap1\n      pop\n      jump\t// out\n        /* \"#utility.yul\":8606:8747   */\n    tag_81:\n        /* \"#utility.yul\":8655:8659   */\n      0x00\n        /* \"#utility.yul\":8678:8681   */\n      dup2\n        /* \"#utility.yul\":8670:8681   */\n      swap1\n      pop\n        /* \"#utility.yul\":8701:8704   */\n      dup2\n        /* \"#utility.yul\":8698:8699   */\n      0x00\n        /* \"#utility.yul\":8691:8705   */\n      mstore\n        /* \"#utility.yul\":8735:8739   */\n      0x20\n        /* \"#utility.yul\":8732:8733   */\n      0x00\n        /* \"#utility.yul\":8722:8740   */\n      keccak256\n        /* \"#utility.yul\":8714:8740   */\n      swap1\n      pop\n        /* \"#utility.yul\":8606:8747   */\n      swap2\n      swap1\n      pop\n      jump\t// out\n        /* \"#utility.yul\":8753:8846   */\n    tag_82:\n        /* \"#utility.yul\":8790:8796   */\n      0x00\n        /* \"#utility.yul\":8837:8839   */\n      0x20\n        /* \"#utility.yul\":8832:8834   */\n      0x1f\n        /* \"#utility.yul\":8825:8830   */\n      dup4\n        /* \"#utility.yul\":8821:8835   */\n      add\n        /* \"#utility.yul\":8817:8840   */\n      div\n        /* \"#utility.yul\":8807:8840   */\n      swap1\n      pop\n        /* \"#utility.yul\":8753:8846   */\n      swap2\n      swap1\n      pop\n      jump\t// out\n        /* \"#utility.yul\":8852:8959   */\n    tag_83:\n        /* \"#utility.yul\":8896:8904   */\n      0x00\n        /* \"#utility.yul\":8946:8951   */\n      dup3\n        /* \"#utility.yul\":8940:8944   */\n      dup3\n        /* \"#utility.yul\":8936:8952   */\n      shl\n        /* \"#utility.yul\":8915:8952   */\n      swap1\n      pop\n        /* \"#utility.yul\":8852:8959   */\n      swap3\n      swap2\n      pop\n      pop\n      jump\t// out\n        /* \"#utility.yul\":8965:9358   */\n    tag_84:\n        /* \"#utility.yul\":9034:9040   */\n      0x00\n        /* \"#utility.yul\":9084:9085   */\n      0x08\n        /* \"#utility.yul\":9072:9082   */\n      dup4\n        /* \"#utility.yul\":9068:9086   */\n      mul\n        /* \"#utility.yul\":9107:9204   */\n      tag_183\n        /* \"#utility.yul\":9137:9203   */\n      0xffffffffffffffffffffffffffffffffffffffffffffffffffffffffffffffff\n        /* \"#utility.yul\":9126:9135   */\n      dup3\n        /* \"#utility.yul\":9107:9204   */\n      tag_83\n      jump\t// in\n    tag_183:\n        /* \"#utility.yul\":9225:9264   */\n      tag_184\n        /* \"#utility.yul\":9255:9263   */\n      dup7\n        /* \"#utility.yul\":9244:9253   */\n      dup4\n        /* \"#utility.yul\":9225:9264   */\n      tag_83\n      jump\t// in\n    tag_184:\n        /* \"#utility.yul\":9213:9264   */\n      swap6\n      pop\n        /* \"#utility.yul\":9297:9301   */\n      dup1\n        /* \"#utility.yul\":9293:9302   */\n      not\n        /* \"#utility.yul\":9286:9291   */\n      dup5\n        /* \"#utility.yul\":9282:9303   */\n      and\n        /* \"#utility.yul\":9273:9303   */\n      swap4\n      pop\n        /* \"#utility.yul\":9346:9350   */\n      dup1\n        /* \"#utility.yul\":9336:9344   */\n      dup7\n        /* \"#utility.yul\":9332:9351   */\n      and\n        /* \"#utility.yul\":9325:9330   */\n      dup5\n        /* \"#utility.yul\":9322:9352   */\n      or\n        /* \"#utility.yul\":9312:9352   */\n      swap3\n      pop\n        /* \"#utility.yul\":9041:9358   */\n      pop\n      pop\n        /* \"#utility.yul\":8965:9358   */\n      swap4\n      swap3\n      pop\n      pop\n      pop\n      jump\t// out\n        /* \"#utility.yul\":9364:9424   */\n    tag_85:\n        /* \"#utility.yul\":9392:9395   */\n      0x00\n        /* \"#utility.yul\":9413:9418   */\n      dup2\n        /* \"#utility.yul\":9406:9418   */\n      swap1\n      pop\n        /* \"#utility.yul\":9364:9424   */\n      swap2\n      swap1\n      pop\n      jump\t// out\n        /* \"#utility.yul\":9430:9572   */\n    tag_86:\n        /* \"#utility.yul\":9480:9489   */\n      0x00\n        /* \"#utility.yul\":9513:9566   */\n      tag_187\n        /* \"#utility.yul\":9531:9565   */\n      tag_188\n        /* \"#utility.yul\":9540:9564   */\n      tag_189\n        /* \"#utility.yul\":9558:9563   */\n      dup5\n        /* \"#utility.yul\":9540:9564   */\n      tag_54\n      jump\t// in\n    tag_189:\n        /* \"#utility.yul\":9531:9565   */\n      tag_85\n      jump\t// in\n    tag_188:\n        /* \"#utility.yul\":9513:9566   */\n      tag_54\n      jump\t// in\n    tag_187:\n        /* \"#utility.yul\":9500:9566   */\n      swap1\n      pop\n        /* \"#utility.yul\":9430:9572   */\n      swap2\n      swap1\n      pop\n      jump\t// out\n        /* \"#utility.yul\":9578:9653   */\n    tag_87:\n        /* \"#utility.yul\":9621:9624   */\n      0x00\n        /* \"#utility.yul\":9642:9647   */\n      dup2\n        /* \"#utility.yul\":9635:9647   */\n      swap1\n      pop\n        /* \"#utility.yul\":9578:9653   */\n      swap2\n      swap1\n      pop\n      jump\t// out\n        /* \"#utility.yul\":9659:9928   */\n    tag_88:\n        /* \"#utility.yul\":9769:9808   */\n      tag_192\n        /* \"#utility.yul\":9800:9807   */\n      dup4\n        /* \"#utility.yul\":9769:9808   */\n      tag_86\n      jump\t// in\n    tag_192:\n        /* \"#utility.yul\":9830:9921   */\n      tag_193\n        /* \"#utility.yul\":9879:9920   */\n      tag_194\n        /* \"#utility.yul\":9903:9919   */\n      dup3\n        /* \"#utility.yul\":9879:9920   */\n      tag_87\n      jump\t// in\n    tag_194:\n        /* \"#utility.yul\":9871:9877   */\n      dup5\n        /* \"#utility.yul\":9864:9868   */\n      dup5\n        /* \"#utility.yul\":9858:9869   */\n      sload\n        /* \"#utility.yul\":9830:9921   */\n      tag_84\n      jump\t// in\n    tag_193:\n        /* \"#utility.yul\":9824:9828   */\n      dup3\n        /* \"#utility.yul\":9817:9922   */\n      sstore\n        /* \"#utility.yul\":9735:9928   */\n      pop\n        /* \"#utility.yul\":9659:9928   */\n      pop\n      pop\n      pop\n      jump\t// out\n        /* \"#utility.yul\":9934:10007   */\n    tag_89:\n        /* \"#utility.yul\":9979:9982   */\n      0x00\n        /* \"#utility.yul\":9934:10007   */\n      swap1\n      jump\t// out\n        /* \"#utility.yul\":10013:10202   */\n    tag_90:\n        /* \"#utility.yul\":10090:10122   */\n      tag_197\n      tag_89\n      jump\t// in\n    tag_197:\n        /* \"#utility.yul\":10131:10196   */\n      tag_198\n        /* \"#utility.yul\":10189:10195   */\n      dup2\n        /* \"#utility.yul\":10181:10187   */\n      dup5\n        /* \"#utility.yul\":10175:10179   */\n      dup5\n        /* \"#utility.yul\":10131:10196   */\n      tag_88\n      jump\t// in\n    tag_198:\n        /* \"#utility.yul\":10066:10202   */\n      pop\n        /* \"#utility.yul\":10013:10202   */\n      pop\n      pop\n      jump\t// out\n        /* \"#utility.yul\":10208:10394   */\n    tag_91:\n        /* \"#utility.yul\":10268:10388   */\n    tag_200:\n        /* \"#utility.yul\":10285:10288   */\n      dup2\n        /* \"#utility.yul\":10278:10283   */\n      dup2\n        /* \"#utility.yul\":10275:10289   */\n      lt\n        /* \"#utility.yul\":10268:10388   */\n      iszero\n      tag_202\n      jumpi\n        /* \"#utility.yul\":10339:10378   */\n      tag_203\n        /* \"#utility.yul\":10376:10377   */\n      0x00\n        /* \"#utility.yul\":10369:10374   */\n      dup3\n        /* \"#utility.yul\":10339:10378   */\n      tag_90\n      jump\t// in\n    tag_203:\n        /* \"#utility.yul\":10312:10313   */\n      0x01\n        /* \"#utility.yul\":10305:10310   */\n      dup2\n        /* \"#utility.yul\":10301:10314   */\n      add\n        /* \"#utility.yul\":10292:10314   */\n      swap1\n      pop\n        /* \"#utility.yul\":10268:10388   */\n      jump(tag_200)\n    tag_202:\n        /* \"#utility.yul\":10208:10394   */\n      pop\n      pop\n      jump\t// out\n        /* \"#utility.yul\":10400:10943   */\n    tag_92:\n        /* \"#utility.yul\":10501:10503   */\n      0x1f\n        /* \"#utility.yul\":10496:10499   */\n      dup3\n        /* \"#utility.yul\":10493:10504   */\n      gt\n        /* \"#utility.yul\":10490:10936   */\n      iszero\n      tag_205\n      jumpi\n        /* \"#utility.yul\":10535:10573   */\n      tag_206\n        /* \"#utility.yul\":10567:10572   */\n      dup2\n        /* \"#utility.yul\":10535:10573   */\n      tag_81\n      jump\t// in\n    tag_206:\n        /* \"#utility.yul\":10619:10648   */\n      tag_207\n        /* \"#utility.yul\":10637:10647   */\n      dup5\n        /* \"#utility.yul\":10619:10648   */\n      tag_82\n      jump\t// in\n    tag_207:\n        /* \"#utility.yul\":10609:10617   */\n      dup2\n        /* \"#utility.yul\":10605:10649   */\n      add\n        /* \"#utility.yul\":10802:10804   */\n      0x20\n        /* \"#utility.yul\":10790:10800   */\n      dup6\n        /* \"#utility.yul\":10787:10805   */\n      lt\n        /* \"#utility.yul\":10784:10833   */\n      iszero\n      tag_208\n      jumpi\n        /* \"#utility.yul\":10823:10831   */\n      dup2\n        /* \"#utility.yul\":10808:10831   */\n      swap1\n      pop\n        /* \"#utility.yul\":10784:10833   */\n    tag_208:\n        /* \"#utility.yul\":10846:10926   */\n      tag_209\n        /* \"#utility.yul\":10902:10924   */\n      tag_210\n        /* \"#utility.yul\":10920:10923   */\n      dup6\n        /* \"#utility.yul\":10902:10924   */\n      tag_82\n      jump\t// in\n    tag_210:\n        /* \"#utility.yul\":10892:10900   */\n      dup4\n        /* \"#utility.yul\":10888:10925   */\n      add\n        /* \"#utility.yul\":10875:10886   */\n      dup3\n        /* \"#utility.yul\":10846:10926   */\n      tag_91\n      jump\t// in\n    tag_209:\n        /* \"#utility.yul\":10505:10936   */\n      pop\n      pop\n        /* \"#utility.yul\":10490:10936   */\n    tag_205:\n        /* \"#utility.yul\":10400:10943   */\n      pop\n      pop\n      pop\n      jump\t// out\n        /* \"#utility.yul\":10949:11066   */\n    tag_93:\n        /* \"#utility.yul\":11003:11011   */\n      0x00\n        /* \"#utility.yul\":11053:11058   */\n      dup3\n        /* \"#utility.yul\":11047:11051   */\n      dup3\n        /* \"#utility.yul\":11043:11059   */\n      shr\n        /* \"#utility.yul\":11022:11059   */\n      swap1\n      pop\n        /* \"#utility.yul\":10949:11066   */\n      swap3\n      swap2\n      pop\n      pop\n      jump\t// out\n        /* \"#utility.yul\":11072:11241   */\n    tag_94:\n        /* \"#utility.yul\":11116:11122   */\n      0x00\n        /* \"#utility.yul\":11149:11200   */\n      tag_213\n        /* \"#utility.yul\":11197:11198   */\n      0x00\n        /* \"#utility.yul\":11193:11199   */\n      not\n        /* \"#utility.yul\":11185:11190   */\n      dup5\n        /* \"#utility.yul\":11182:11183   */\n      0x08\n        /* \"#utility.yul\":11178:11191   */\n      mul\n        /* \"#utility.yul\":11149:11200   */\n      tag_93\n      jump\t// in\n    tag_213:\n        /* \"#utility.yul\":11145:11201   */\n      not\n        /* \"#utility.yul\":11230:11234   */\n      dup1\n        /* \"#utility.yul\":11224:11228   */\n      dup4\n        /* \"#utility.yul\":11220:11235   */\n      and\n        /* \"#utility.yul\":11210:11235   */\n      swap2\n      pop\n        /* \"#utility.yul\":11123:11241   */\n      pop\n        /* \"#utility.yul\":11072:11241   */\n      swap3\n      swap2\n      pop\n      pop\n      jump\t// out\n        /* \"#utility.yul\":11246:11541   */\n    tag_95:\n        /* \"#utility.yul\":11322:11326   */\n      0x00\n        /* \"#utility.yul\":11468:11497   */\n      tag_215\n        /* \"#utility.yul\":11493:11496   */\n      dup4\n        /* \"#utility.yul\":11487:11491   */\n      dup4\n        /* \"#utility.yul\":11468:11497   */\n      tag_94\n      jump\t// in\n    tag_215:\n        /* \"#utility.yul\":11460:11497   */\n      swap2\n      pop\n        /* \"#utility.yul\":11530:11533   */\n      dup3\n        /* \"#utility.yul\":11527:11528   */\n      0x02\n        /* \"#utility.yul\":11523:11534   */\n      mul\n        /* \"#utility.yul\":11517:11521   */\n      dup3\n        /* \"#utility.yul\":11514:11535   */\n      or\n        /* \"#utility.yul\":11506:11535   */\n      swap1\n      pop\n        /* \"#utility.yul\":11246:11541   */\n      swap3\n      swap2\n      pop\n      pop\n      jump\t// out\n        /* \"#utility.yul\":11546:12941   */\n    tag_52:\n        /* \"#utility.yul\":11663:11700   */\n      tag_217\n        /* \"#utility.yul\":11696:11699   */\n      dup3\n        /* \"#utility.yul\":11663:11700   */\n      tag_62\n      jump\t// in\n    tag_217:\n        /* \"#utility.yul\":11765:11783   */\n      0xffffffffffffffff\n        /* \"#utility.yul\":11757:11763   */\n      dup2\n        /* \"#utility.yul\":11754:11784   */\n      gt\n        /* \"#utility.yul\":11751:11807   */\n      iszero\n      tag_218\n      jumpi\n        /* \"#utility.yul\":11787:11805   */\n      tag_219\n      tag_70\n      jump\t// in\n    tag_219:\n        /* \"#utility.yul\":11751:11807   */\n    tag_218:\n        /* \"#utility.yul\":11831:11869   */\n      tag_220\n        /* \"#utility.yul\":11863:11867   */\n      dup3\n        /* \"#utility.yul\":11857:11868   */\n      sload\n        /* \"#utility.yul\":11831:11869   */\n      tag_39\n      jump\t// in\n    tag_220:\n        /* \"#utility.yul\":11916:11983   */\n      tag_221\n        /* \"#utility.yul\":11976:11982   */\n      dup3\n        /* \"#utility.yul\":11968:11974   */\n      dup3\n        /* \"#utility.yul\":11962:11966   */\n      dup6\n        /* \"#utility.yul\":11916:11983   */\n      tag_92\n      jump\t// in\n    tag_221:\n        /* \"#utility.yul\":12010:12011   */\n      0x00\n        /* \"#utility.yul\":12034:12038   */\n      0x20\n        /* \"#utility.yul\":12021:12038   */\n      swap1\n      pop\n        /* \"#utility.yul\":12066:12068   */\n      0x1f\n        /* \"#utility.yul\":12058:12064   */\n      dup4\n        /* \"#utility.yul\":12055:12069   */\n      gt\n        /* \"#utility.yul\":12083:12084   */\n      0x01\n        /* \"#utility.yul\":12078:12696   */\n      dup2\n      eq\n      tag_223\n      jumpi\n        /* \"#utility.yul\":12740:12741   */\n      0x00\n        /* \"#utility.yul\":12757:12763   */\n      dup5\n        /* \"#utility.yul\":12754:12831   */\n      iszero\n      tag_224\n      jumpi\n        /* \"#utility.yul\":12806:12815   */\n      dup3\n        /* \"#utility.yul\":12801:12804   */\n      dup8\n        /* \"#utility.yul\":12797:12816   */\n      add\n        /* \"#utility.yul\":12791:12817   */\n      mload\n        /* \"#utility.yul\":12782:12817   */\n      swap1\n      pop\n        /* \"#utility.yul\":12754:12831   */\n    tag_224:\n        /* \"#utility.yul\":12857:12924   */\n      tag_225\n        /* \"#utility.yul\":12917:12923   */\n      dup6\n        /* \"#utility.yul\":12910:12915   */\n      dup3\n        /* \"#utility.yul\":12857:12924   */\n      tag_95\n      jump\t// in\n    tag_225:\n        /* \"#utility.yul\":12851:12855   */\n      dup7\n        /* \"#utility.yul\":12844:12925   */\n      sstore\n        /* \"#utility.yul\":12713:12935   */\n      pop\n        /* \"#utility.yul\":12048:12935   */\n      jump(tag_222)\n        /* \"#utility.yul\":12078:12696   */\n    tag_223:\n        /* \"#utility.yul\":12130:12134   */\n      0x1f\n        /* \"#utility.yul\":12126:12135   */\n      not\n        /* \"#utility.yul\":12118:12124   */\n      dup5\n        /* \"#utility.yul\":12114:12136   */\n      and\n        /* \"#utility.yul\":12164:12201   */\n      tag_226\n        /* \"#utility.yul\":12196:12200   */\n      dup7\n        /* \"#utility.yul\":12164:12201   */\n      tag_81\n      jump\t// in\n    tag_226:\n        /* \"#utility.yul\":12223:12224   */\n      0x00\n        /* \"#utility.yul\":12237:12445   */\n    tag_227:\n        /* \"#utility.yul\":12251:12258   */\n      dup3\n        /* \"#utility.yul\":12248:12249   */\n      dup2\n        /* \"#utility.yul\":12245:12259   */\n      lt\n        /* \"#utility.yul\":12237:12445   */\n      iszero\n      tag_229\n      jumpi\n        /* \"#utility.yul\":12330:12339   */\n      dup5\n        /* \"#utility.yul\":12325:12328   */\n      dup10\n        /* \"#utility.yul\":12321:12340   */\n      add\n        /* \"#utility.yul\":12315:12341   */\n      mload\n        /* \"#utility.yul\":12307:12313   */\n      dup3\n        /* \"#utility.yul\":12300:12342   */\n      sstore\n        /* \"#utility.yul\":12381:12382   */\n      0x01\n        /* \"#utility.yul\":12373:12379   */\n      dup3\n        /* \"#utility.yul\":12369:12383   */\n      add\n        /* \"#utility.yul\":12359:12383   */\n      swap2\n      pop\n        /* \"#utility.yul\":12428:12430   */\n      0x20\n        /* \"#utility.yul\":12417:12426   */\n      dup6\n        /* \"#utility.yul\":12413:12431   */\n      add\n        /* \"#utility.yul\":12400:12431   */\n      swap5\n      pop\n        /* \"#utility.yul\":12274:12278   */\n      0x20\n        /* \"#utility.yul\":12271:12272   */\n      dup2\n        /* \"#utility.yul\":12267:12279   */\n      add\n        /* \"#utility.yul\":12262:12279   */\n      swap1\n      pop\n        /* \"#utility.yul\":12237:12445   */\n      jump(tag_227)\n    tag_229:\n        /* \"#utility.yul\":12473:12479   */\n      dup7\n        /* \"#utility.yul\":12464:12471   */\n      dup4\n        /* \"#utility.yul\":12461:12480   */\n      lt\n        /* \"#utility.yul\":12458:12637   */\n      iszero\n      tag_230\n      jumpi\n        /* \"#utility.yul\":12531:12540   */\n      dup5\n        /* \"#utility.yul\":12526:12529   */\n      dup10\n        /* \"#utility.yul\":12522:12541   */\n      add\n        /* \"#utility.yul\":12516:12542   */\n      mload\n        /* \"#utility.yul\":12574:12622   */\n      tag_231\n        /* \"#utility.yul\":12616:12620   */\n      0x1f\n        /* \"#utility.yul\":12608:12614   */\n      dup10\n        /* \"#utility.yul\":12604:12621   */\n      and\n        /* \"#utility.yul\":12593:12602   */\n      dup3\n        /* \"#utility.yul\":12574:12622   */\n      tag_94\n      jump\t// in\n    tag_231:\n        /* \"#utility.yul\":12566:12572   */\n      dup4\n        /* \"#utility.yul\":12559:12623   */\n      sstore\n        /* \"#utility.yul\":12481:12637   */\n      pop\n        /* \"#utility.yul\":12458:12637   */\n    tag_230:\n        /* \"#utility.yul\":12683:12684   */\n      0x01\n        /* \"#utility.yul\":12679:12680   */\n      0x02\n        /* \"#utility.yul\":12671:12677   */\n      dup9\n        /* \"#utility.yul\":12667:12681   */\n      mul\n        /* \"#utility.yul\":12663:12685   */\n      add\n        /* \"#utility.yul\":12657:12661   */\n      dup9\n        /* \"#utility.yul\":12650:12686   */\n      sstore\n        /* \"#utility.yul\":12085:12696   */\n      pop\n      pop\n      pop\n        /* \"#utility.yul\":12048:12935   */\n    tag_222:\n      pop\n        /* \"#utility.yul\":11638:12941   */\n      pop\n      pop\n      pop\n        /* \"#utility.yul\":11546:12941   */\n      pop\n      pop\n      jump\t// out\n\n    auxdata: 0xa26469706673582212209c7193fc15b856db52232cb4e6d5be5800c97161f65f092a64933005fdb11b1d64736f6c634300081a0033\n}\n",
				"bytecode": {
					"linkReferences": {},
					"object": "6080604052348015600e575f80fd5b50610a0a8061001c5f395ff3fe608060405260043610610037575f3560e01c806341e0c40714610040578063642f91631461006a578063edfa2296146100a65761003e565b3661003e57005b005b34801561004b575f80fd5b506100546100ce565b6040516100619190610340565b60405180910390f35b348015610075575f80fd5b50610090600480360381019061008b9190610394565b6100d9565b60405161009d9190610492565b60405180910390f35b3480156100b1575f80fd5b506100cc60048036038101906100c791906105de565b610286565b005b5f8080549050905090565b6100e1610308565b5f805490508210610127576040517f08c379a000000000000000000000000000000000000000000000000000000000815260040161011e906106c0565b60405180910390fd5b5f80838154811061013b5761013a6106de565b5b905f5260205f2090600302016040518060600160405290815f820154815260200160018201805461016b90610738565b80601f016020809104026020016040519081016040528092919081815260200182805461019790610738565b80156101e25780601f106101b9576101008083540402835291602001916101e2565b820191905f5260205f20905b8154815290600101906020018083116101c557829003601f168201915b505050505081526020016002820180546101fb90610738565b80601f016020809104026020016040519081016040528092919081815260200182805461022790610738565b80156102725780601f1061024957610100808354040283529160200191610272565b820191905f5260205f20905b81548152906001019060200180831161025557829003601f168201915b505050505081525050905080915050919050565b5f60405180606001604052808581526020018481526020018381525090505f81908060018154018082558091505060019003905f5260205f2090600302015f909190919091505f820151815f015560208201518160010190816102e99190610905565b5060408201518160020190816102ff9190610905565b50505050505050565b60405180606001604052805f815260200160608152602001606081525090565b5f819050919050565b61033a81610328565b82525050565b5f6020820190506103535f830184610331565b92915050565b5f604051905090565b5f80fd5b5f80fd5b61037381610328565b811461037d575f80fd5b50565b5f8135905061038e8161036a565b92915050565b5f602082840312156103a9576103a8610362565b5b5f6103b684828501610380565b91505092915050565b6103c881610328565b82525050565b5f81519050919050565b5f82825260208201905092915050565b8281835e5f83830152505050565b5f601f19601f8301169050919050565b5f610410826103ce565b61041a81856103d8565b935061042a8185602086016103e8565b610433816103f6565b840191505092915050565b5f606083015f8301516104535f8601826103bf565b506020830151848203602086015261046b8282610406565b915050604083015184820360408601526104858282610406565b9150508091505092915050565b5f6020820190508181035f8301526104aa818461043e565b905092915050565b5f80fd5b5f80fd5b7f4e487b71000000000000000000000000000000000000000000000000000000005f52604160045260245ffd5b6104f0826103f6565b810181811067ffffffffffffffff8211171561050f5761050e6104ba565b5b80604052505050565b5f610521610359565b905061052d82826104e7565b919050565b5f67ffffffffffffffff82111561054c5761054b6104ba565b5b610555826103f6565b9050602081019050919050565b828183375f83830152505050565b5f61058261057d84610532565b610518565b90508281526020810184848401111561059e5761059d6104b6565b5b6105a9848285610562565b509392505050565b5f82601f8301126105c5576105c46104b2565b5b81356105d5848260208601610570565b91505092915050565b5f805f606084860312156105f5576105f4610362565b5b5f61060286828701610380565b935050602084013567ffffffffffffffff81111561062357610622610366565b5b61062f868287016105b1565b925050604084013567ffffffffffffffff8111156106505761064f610366565b5b61065c868287016105b1565b9150509250925092565b5f82825260208201905092915050565b7f53747564656e7420646f6573206e6f74206578697374210000000000000000005f82015250565b5f6106aa601783610666565b91506106b582610676565b602082019050919050565b5f6020820190508181035f8301526106d78161069e565b9050919050565b7f4e487b71000000000000000000000000000000000000000000000000000000005f52603260045260245ffd5b7f4e487b71000000000000000000000000000000000000000000000000000000005f52602260045260245ffd5b5f600282049050600182168061074f57607f821691505b6020821081036107625761076161070b565b5b50919050565b5f819050815f5260205f209050919050565b5f6020601f8301049050919050565b5f82821b905092915050565b5f600883026107c47fffffffffffffffffffffffffffffffffffffffffffffffffffffffffffffffff82610789565b6107ce8683610789565b95508019841693508086168417925050509392505050565b5f819050919050565b5f6108096108046107ff84610328565b6107e6565b610328565b9050919050565b5f819050919050565b610822836107ef565b61083661082e82610810565b848454610795565b825550505050565b5f90565b61084a61083e565b610855818484610819565b505050565b5b818110156108785761086d5f82610842565b60018101905061085b565b5050565b601f8211156108bd5761088e81610768565b6108978461077a565b810160208510156108a6578190505b6108ba6108b28561077a565b83018261085a565b50505b505050565b5f82821c905092915050565b5f6108dd5f19846008026108c2565b1980831691505092915050565b5f6108f583836108ce565b9150826002028217905092915050565b61090e826103ce565b67ffffffffffffffff811115610927576109266104ba565b5b6109318254610738565b61093c82828561087c565b5f60209050601f83116001811461096d575f841561095b578287015190505b61096585826108ea565b8655506109cc565b601f19841661097b86610768565b5f5b828110156109a25784890151825560018201915060208501945060208101905061097d565b868310156109bf57848901516109bb601f8916826108ce565b8355505b6001600288020188555050505b50505050505056fea26469706673582212209c7193fc15b856db52232cb4e6d5be5800c97161f65f092a64933005fdb11b1d64736f6c634300081a0033",
					"opcodes": "PUSH1 0x80 PUSH1 0x40 MSTORE CALLVALUE DUP1 ISZERO PUSH1 0xE JUMPI PUSH0 DUP1 REVERT JUMPDEST POP PUSH2 0xA0A DUP1 PUSH2 0x1C PUSH0 CODECOPY PUSH0 RETURN INVALID PUSH1 0x80 PUSH1 0x40 MSTORE PUSH1 0x4 CALLDATASIZE LT PUSH2 0x37 JUMPI PUSH0 CALLDATALOAD PUSH1 0xE0 SHR DUP1 PUSH4 0x41E0C407 EQ PUSH2 0x40 JUMPI DUP1 PUSH4 0x642F9163 EQ PUSH2 0x6A JUMPI DUP1 PUSH4 0xEDFA2296 EQ PUSH2 0xA6 JUMPI PUSH2 0x3E JUMP JUMPDEST CALLDATASIZE PUSH2 0x3E JUMPI STOP JUMPDEST STOP JUMPDEST CALLVALUE DUP1 ISZERO PUSH2 0x4B JUMPI PUSH0 DUP1 REVERT JUMPDEST POP PUSH2 0x54 PUSH2 0xCE JUMP JUMPDEST PUSH1 0x40 MLOAD PUSH2 0x61 SWAP2 SWAP1 PUSH2 0x340 JUMP JUMPDEST PUSH1 0x40 MLOAD DUP1 SWAP2 SUB SWAP1 RETURN JUMPDEST CALLVALUE DUP1 ISZERO PUSH2 0x75 JUMPI PUSH0 DUP1 REVERT JUMPDEST POP PUSH2 0x90 PUSH1 0x4 DUP1 CALLDATASIZE SUB DUP2 ADD SWAP1 PUSH2 0x8B SWAP2 SWAP1 PUSH2 0x394 JUMP JUMPDEST PUSH2 0xD9 JUMP JUMPDEST PUSH1 0x40 MLOAD PUSH2 0x9D SWAP2 SWAP1 PUSH2 0x492 JUMP JUMPDEST PUSH1 0x40 MLOAD DUP1 SWAP2 SUB SWAP1 RETURN JUMPDEST CALLVALUE DUP1 ISZERO PUSH2 0xB1 JUMPI PUSH0 DUP1 REVERT JUMPDEST POP PUSH2 0xCC PUSH1 0x4 DUP1 CALLDATASIZE SUB DUP2 ADD SWAP1 PUSH2 0xC7 SWAP2 SWAP1 PUSH2 0x5DE JUMP JUMPDEST PUSH2 0x286 JUMP JUMPDEST STOP JUMPDEST PUSH0 DUP1 DUP1 SLOAD SWAP1 POP SWAP1 POP SWAP1 JUMP JUMPDEST PUSH2 0xE1 PUSH2 0x308 JUMP JUMPDEST PUSH0 DUP1 SLOAD SWAP1 POP DUP3 LT PUSH2 0x127 JUMPI PUSH1 0x40 MLOAD PUSH32 0x8C379A000000000000000000000000000000000000000000000000000000000 DUP2 MSTORE PUSH1 0x4 ADD PUSH2 0x11E SWAP1 PUSH2 0x6C0 JUMP JUMPDEST PUSH1 0x40 MLOAD DUP1 SWAP2 SUB SWAP1 REVERT JUMPDEST PUSH0 DUP1 DUP4 DUP2 SLOAD DUP2 LT PUSH2 0x13B JUMPI PUSH2 0x13A PUSH2 0x6DE JUMP JUMPDEST JUMPDEST SWAP1 PUSH0 MSTORE PUSH1 0x20 PUSH0 KECCAK256 SWAP1 PUSH1 0x3 MUL ADD PUSH1 0x40 MLOAD DUP1 PUSH1 0x60 ADD PUSH1 0x40 MSTORE SWAP1 DUP2 PUSH0 DUP3 ADD SLOAD DUP2 MSTORE PUSH1 0x20 ADD PUSH1 0x1 DUP3 ADD DUP1 SLOAD PUSH2 0x16B SWAP1 PUSH2 0x738 JUMP JUMPDEST DUP1 PUSH1 0x1F ADD PUSH1 0x20 DUP1 SWAP2 DIV MUL PUSH1 0x20 ADD PUSH1 0x40 MLOAD SWAP1 DUP2 ADD PUSH1 0x40 MSTORE DUP1 SWAP3 SWAP2 SWAP1 DUP2 DUP2 MSTORE PUSH1 0x20 ADD DUP3 DUP1 SLOAD PUSH2 0x197 SWAP1 PUSH2 0x738 JUMP JUMPDEST DUP1 ISZERO PUSH2 0x1E2 JUMPI DUP1 PUSH1 0x1F LT PUSH2 0x1B9 JUMPI PUSH2 0x100 DUP1 DUP4 SLOAD DIV MUL DUP4 MSTORE SWAP2 PUSH1 0x20 ADD SWAP2 PUSH2 0x1E2 JUMP JUMPDEST DUP3 ADD SWAP2 SWAP1 PUSH0 MSTORE PUSH1 0x20 PUSH0 KECCAK256 SWAP1 JUMPDEST DUP2 SLOAD DUP2 MSTORE SWAP1 PUSH1 0x1 ADD SWAP1 PUSH1 0x20 ADD DUP1 DUP4 GT PUSH2 0x1C5 JUMPI DUP3 SWAP1 SUB PUSH1 0x1F AND DUP3 ADD SWAP2 JUMPDEST POP POP POP POP POP DUP2 MSTORE PUSH1 0x20 ADD PUSH1 0x2 DUP3 ADD DUP1 SLOAD PUSH2 0x1FB SWAP1 PUSH2 0x738 JUMP JUMPDEST DUP1 PUSH1 0x1F ADD PUSH1 0x20 DUP1 SWAP2 DIV MUL PUSH1 0x20 ADD PUSH1 0x40 MLOAD SWAP1 DUP2 ADD PUSH1 0x40 MSTORE DUP1 SWAP3 SWAP2 SWAP1 DUP2 DUP2 MSTORE PUSH1 0x20 ADD DUP3 DUP1 SLOAD PUSH2 0x227 SWAP1 PUSH2 0x738 JUMP JUMPDEST DUP1 ISZERO PUSH2 0x272 JUMPI DUP1 PUSH1 0x1F LT PUSH2 0x249 JUMPI PUSH2 0x100 DUP1 DUP4 SLOAD DIV MUL DUP4 MSTORE SWAP2 PUSH1 0x20 ADD SWAP2 PUSH2 0x272 JUMP JUMPDEST DUP3 ADD SWAP2 SWAP1 PUSH0 MSTORE PUSH1 0x20 PUSH0 KECCAK256 SWAP1 JUMPDEST DUP2 SLOAD DUP2 MSTORE SWAP1 PUSH1 0x1 ADD SWAP1 PUSH1 0x20 ADD DUP1 DUP4 GT PUSH2 0x255 JUMPI DUP3 SWAP1 SUB PUSH1 0x1F AND DUP3 ADD SWAP2 JUMPDEST POP POP POP POP POP DUP2 MSTORE POP POP SWAP1 POP DUP1 SWAP2 POP POP SWAP2 SWAP1 POP JUMP JUMPDEST PUSH0 PUSH1 0x40 MLOAD DUP1 PUSH1 0x60 ADD PUSH1 0x40 MSTORE DUP1 DUP6 DUP2 MSTORE PUSH1 0x20 ADD DUP5 DUP2 MSTORE PUSH1 0x20 ADD DUP4 DUP2 MSTORE POP SWAP1 POP PUSH0 DUP2 SWAP1 DUP1 PUSH1 0x1 DUP2 SLOAD ADD DUP1 DUP3 SSTORE DUP1 SWAP2 POP POP PUSH1 0x1 SWAP1 SUB SWAP1 PUSH0 MSTORE PUSH1 0x20 PUSH0 KECCAK256 SWAP1 PUSH1 0x3 MUL ADD PUSH0 SWAP1 SWAP2 SWAP1 SWAP2 SWAP1 SWAP2 POP PUSH0 DUP3 ADD MLOAD DUP2 PUSH0 ADD SSTORE PUSH1 0x20 DUP3 ADD MLOAD DUP2 PUSH1 0x1 ADD SWAP1 DUP2 PUSH2 0x2E9 SWAP2 SWAP1 PUSH2 0x905 JUMP JUMPDEST POP PUSH1 0x40 DUP3 ADD MLOAD DUP2 PUSH1 0x2 ADD SWAP1 DUP2 PUSH2 0x2FF SWAP2 SWAP1 PUSH2 0x905 JUMP JUMPDEST POP POP POP POP POP POP POP JUMP JUMPDEST PUSH1 0x40 MLOAD DUP1 PUSH1 0x60 ADD PUSH1 0x40 MSTORE DUP1 PUSH0 DUP2 MSTORE PUSH1 0x20 ADD PUSH1 0x60 DUP2 MSTORE PUSH1 0x20 ADD PUSH1 0x60 DUP2 MSTORE POP SWAP1 JUMP JUMPDEST PUSH0 DUP2 SWAP1 POP SWAP2 SWAP1 POP JUMP JUMPDEST PUSH2 0x33A DUP2 PUSH2 0x328 JUMP JUMPDEST DUP3 MSTORE POP POP JUMP JUMPDEST PUSH0 PUSH1 0x20 DUP3 ADD SWAP1 POP PUSH2 0x353 PUSH0 DUP4 ADD DUP5 PUSH2 0x331 JUMP JUMPDEST SWAP3 SWAP2 POP POP JUMP JUMPDEST PUSH0 PUSH1 0x40 MLOAD SWAP1 POP SWAP1 JUMP JUMPDEST PUSH0 DUP1 REVERT JUMPDEST PUSH0 DUP1 REVERT JUMPDEST PUSH2 0x373 DUP2 PUSH2 0x328 JUMP JUMPDEST DUP2 EQ PUSH2 0x37D JUMPI PUSH0 DUP1 REVERT JUMPDEST POP JUMP JUMPDEST PUSH0 DUP2 CALLDATALOAD SWAP1 POP PUSH2 0x38E DUP2 PUSH2 0x36A JUMP JUMPDEST SWAP3 SWAP2 POP POP JUMP JUMPDEST PUSH0 PUSH1 0x20 DUP3 DUP5 SUB SLT ISZERO PUSH2 0x3A9 JUMPI PUSH2 0x3A8 PUSH2 0x362 JUMP JUMPDEST JUMPDEST PUSH0 PUSH2 0x3B6 DUP5 DUP3 DUP6 ADD PUSH2 0x380 JUMP JUMPDEST SWAP2 POP POP SWAP3 SWAP2 POP POP JUMP JUMPDEST PUSH2 0x3C8 DUP2 PUSH2 0x328 JUMP JUMPDEST DUP3 MSTORE POP POP JUMP JUMPDEST PUSH0 DUP2 MLOAD SWAP1 POP SWAP2 SWAP1 POP JUMP JUMPDEST PUSH0 DUP3 DUP3 MSTORE PUSH1 0x20 DUP3 ADD SWAP1 POP SWAP3 SWAP2 POP POP JUMP JUMPDEST DUP3 DUP2 DUP4 MCOPY PUSH0 DUP4 DUP4 ADD MSTORE POP POP POP JUMP JUMPDEST PUSH0 PUSH1 0x1F NOT PUSH1 0x1F DUP4 ADD AND SWAP1 POP SWAP2 SWAP1 POP JUMP JUMPDEST PUSH0 PUSH2 0x410 DUP3 PUSH2 0x3CE JUMP JUMPDEST PUSH2 0x41A DUP2 DUP6 PUSH2 0x3D8 JUMP JUMPDEST SWAP4 POP PUSH2 0x42A DUP2 DUP6 PUSH1 0x20 DUP7 ADD PUSH2 0x3E8 JUMP JUMPDEST PUSH2 0x433 DUP2 PUSH2 0x3F6 JUMP JUMPDEST DUP5 ADD SWAP2 POP POP SWAP3 SWAP2 POP POP JUMP JUMPDEST PUSH0 PUSH1 0x60 DUP4 ADD PUSH0 DUP4 ADD MLOAD PUSH2 0x453 PUSH0 DUP7 ADD DUP3 PUSH2 0x3BF JUMP JUMPDEST POP PUSH1 0x20 DUP4 ADD MLOAD DUP5 DUP3 SUB PUSH1 0x20 DUP7 ADD MSTORE PUSH2 0x46B DUP3 DUP3 PUSH2 0x406 JUMP JUMPDEST SWAP2 POP POP PUSH1 0x40 DUP4 ADD MLOAD DUP5 DUP3 SUB PUSH1 0x40 DUP7 ADD MSTORE PUSH2 0x485 DUP3 DUP3 PUSH2 0x406 JUMP JUMPDEST SWAP2 POP POP DUP1 SWAP2 POP POP SWAP3 SWAP2 POP POP JUMP JUMPDEST PUSH0 PUSH1 0x20 DUP3 ADD SWAP1 POP DUP2 DUP2 SUB PUSH0 DUP4 ADD MSTORE PUSH2 0x4AA DUP2 DUP5 PUSH2 0x43E JUMP JUMPDEST SWAP1 POP SWAP3 SWAP2 POP POP JUMP JUMPDEST PUSH0 DUP1 REVERT JUMPDEST PUSH0 DUP1 REVERT JUMPDEST PUSH32 0x4E487B7100000000000000000000000000000000000000000000000000000000 PUSH0 MSTORE PUSH1 0x41 PUSH1 0x4 MSTORE PUSH1 0x24 PUSH0 REVERT JUMPDEST PUSH2 0x4F0 DUP3 PUSH2 0x3F6 JUMP JUMPDEST DUP2 ADD DUP2 DUP2 LT PUSH8 0xFFFFFFFFFFFFFFFF DUP3 GT OR ISZERO PUSH2 0x50F JUMPI PUSH2 0x50E PUSH2 0x4BA JUMP JUMPDEST JUMPDEST DUP1 PUSH1 0x40 MSTORE POP POP POP JUMP JUMPDEST PUSH0 PUSH2 0x521 PUSH2 0x359 JUMP JUMPDEST SWAP1 POP PUSH2 0x52D DUP3 DUP3 PUSH2 0x4E7 JUMP JUMPDEST SWAP2 SWAP1 POP JUMP JUMPDEST PUSH0 PUSH8 0xFFFFFFFFFFFFFFFF DUP3 GT ISZERO PUSH2 0x54C JUMPI PUSH2 0x54B PUSH2 0x4BA JUMP JUMPDEST JUMPDEST PUSH2 0x555 DUP3 PUSH2 0x3F6 JUMP JUMPDEST SWAP1 POP PUSH1 0x20 DUP2 ADD SWAP1 POP SWAP2 SWAP1 POP JUMP JUMPDEST DUP3 DUP2 DUP4 CALLDATACOPY PUSH0 DUP4 DUP4 ADD MSTORE POP POP POP JUMP JUMPDEST PUSH0 PUSH2 0x582 PUSH2 0x57D DUP5 PUSH2 0x532 JUMP JUMPDEST PUSH2 0x518 JUMP JUMPDEST SWAP1 POP DUP3 DUP2 MSTORE PUSH1 0x20 DUP2 ADD DUP5 DUP5 DUP5 ADD GT ISZERO PUSH2 0x59E JUMPI PUSH2 0x59D PUSH2 0x4B6 JUMP JUMPDEST JUMPDEST PUSH2 0x5A9 DUP5 DUP3 DUP6 PUSH2 0x562 JUMP JUMPDEST POP SWAP4 SWAP3 POP POP POP JUMP JUMPDEST PUSH0 DUP3 PUSH1 0x1F DUP4 ADD SLT PUSH2 0x5C5 JUMPI PUSH2 0x5C4 PUSH2 0x4B2 JUMP JUMPDEST JUMPDEST DUP2 CALLDATALOAD PUSH2 0x5D5 DUP5 DUP3 PUSH1 0x20 DUP7 ADD PUSH2 0x570 JUMP JUMPDEST SWAP2 POP POP SWAP3 SWAP2 POP POP JUMP JUMPDEST PUSH0 DUP1 PUSH0 PUSH1 0x60 DUP5 DUP7 SUB SLT ISZERO PUSH2 0x5F5 JUMPI PUSH2 0x5F4 PUSH2 0x362 JUMP JUMPDEST JUMPDEST PUSH0 PUSH2 0x602 DUP7 DUP3 DUP8 ADD PUSH2 0x380 JUMP JUMPDEST SWAP4 POP POP PUSH1 0x20 DUP5 ADD CALLDATALOAD PUSH8 0xFFFFFFFFFFFFFFFF DUP2 GT ISZERO PUSH2 0x623 JUMPI PUSH2 0x622 PUSH2 0x366 JUMP JUMPDEST JUMPDEST PUSH2 0x62F DUP7 DUP3 DUP8 ADD PUSH2 0x5B1 JUMP JUMPDEST SWAP3 POP POP PUSH1 0x40 DUP5 ADD CALLDATALOAD PUSH8 0xFFFFFFFFFFFFFFFF DUP2 GT ISZERO PUSH2 0x650 JUMPI PUSH2 0x64F PUSH2 0x366 JUMP JUMPDEST JUMPDEST PUSH2 0x65C DUP7 DUP3 DUP8 ADD PUSH2 0x5B1 JUMP JUMPDEST SWAP2 POP POP SWAP3 POP SWAP3 POP SWAP3 JUMP JUMPDEST PUSH0 DUP3 DUP3 MSTORE PUSH1 0x20 DUP3 ADD SWAP1 POP SWAP3 SWAP2 POP POP JUMP JUMPDEST PUSH32 0x53747564656E7420646F6573206E6F7420657869737421000000000000000000 PUSH0 DUP3 ADD MSTORE POP JUMP JUMPDEST PUSH0 PUSH2 0x6AA PUSH1 0x17 DUP4 PUSH2 0x666 JUMP JUMPDEST SWAP2 POP PUSH2 0x6B5 DUP3 PUSH2 0x676 JUMP JUMPDEST PUSH1 0x20 DUP3 ADD SWAP1 POP SWAP2 SWAP1 POP JUMP JUMPDEST PUSH0 PUSH1 0x20 DUP3 ADD SWAP1 POP DUP2 DUP2 SUB PUSH0 DUP4 ADD MSTORE PUSH2 0x6D7 DUP2 PUSH2 0x69E JUMP JUMPDEST SWAP1 POP SWAP2 SWAP1 POP JUMP JUMPDEST PUSH32 0x4E487B7100000000000000000000000000000000000000000000000000000000 PUSH0 MSTORE PUSH1 0x32 PUSH1 0x4 MSTORE PUSH1 0x24 PUSH0 REVERT JUMPDEST PUSH32 0x4E487B7100000000000000000000000000000000000000000000000000000000 PUSH0 MSTORE PUSH1 0x22 PUSH1 0x4 MSTORE PUSH1 0x24 PUSH0 REVERT JUMPDEST PUSH0 PUSH1 0x2 DUP3 DIV SWAP1 POP PUSH1 0x1 DUP3 AND DUP1 PUSH2 0x74F JUMPI PUSH1 0x7F DUP3 AND SWAP2 POP JUMPDEST PUSH1 0x20 DUP3 LT DUP2 SUB PUSH2 0x762 JUMPI PUSH2 0x761 PUSH2 0x70B JUMP JUMPDEST JUMPDEST POP SWAP2 SWAP1 POP JUMP JUMPDEST PUSH0 DUP2 SWAP1 POP DUP2 PUSH0 MSTORE PUSH1 0x20 PUSH0 KECCAK256 SWAP1 POP SWAP2 SWAP1 POP JUMP JUMPDEST PUSH0 PUSH1 0x20 PUSH1 0x1F DUP4 ADD DIV SWAP1 POP SWAP2 SWAP1 POP JUMP JUMPDEST PUSH0 DUP3 DUP3 SHL SWAP1 POP SWAP3 SWAP2 POP POP JUMP JUMPDEST PUSH0 PUSH1 0x8 DUP4 MUL PUSH2 0x7C4 PUSH32 0xFFFFFFFFFFFFFFFFFFFFFFFFFFFFFFFFFFFFFFFFFFFFFFFFFFFFFFFFFFFFFFFF DUP3 PUSH2 0x789 JUMP JUMPDEST PUSH2 0x7CE DUP7 DUP4 PUSH2 0x789 JUMP JUMPDEST SWAP6 POP DUP1 NOT DUP5 AND SWAP4 POP DUP1 DUP7 AND DUP5 OR SWAP3 POP POP POP SWAP4 SWAP3 POP POP POP JUMP JUMPDEST PUSH0 DUP2 SWAP1 POP SWAP2 SWAP1 POP JUMP JUMPDEST PUSH0 PUSH2 0x809 PUSH2 0x804 PUSH2 0x7FF DUP5 PUSH2 0x328 JUMP JUMPDEST PUSH2 0x7E6 JUMP JUMPDEST PUSH2 0x328 JUMP JUMPDEST SWAP1 POP SWAP2 SWAP1 POP JUMP JUMPDEST PUSH0 DUP2 SWAP1 POP SWAP2 SWAP1 POP JUMP JUMPDEST PUSH2 0x822 DUP4 PUSH2 0x7EF JUMP JUMPDEST PUSH2 0x836 PUSH2 0x82E DUP3 PUSH2 0x810 JUMP JUMPDEST DUP5 DUP5 SLOAD PUSH2 0x795 JUMP JUMPDEST DUP3 SSTORE POP POP POP POP JUMP JUMPDEST PUSH0 SWAP1 JUMP JUMPDEST PUSH2 0x84A PUSH2 0x83E JUMP JUMPDEST PUSH2 0x855 DUP2 DUP5 DUP5 PUSH2 0x819 JUMP JUMPDEST POP POP POP JUMP JUMPDEST JUMPDEST DUP2 DUP2 LT ISZERO PUSH2 0x878 JUMPI PUSH2 0x86D PUSH0 DUP3 PUSH2 0x842 JUMP JUMPDEST PUSH1 0x1 DUP2 ADD SWAP1 POP PUSH2 0x85B JUMP JUMPDEST POP POP JUMP JUMPDEST PUSH1 0x1F DUP3 GT ISZERO PUSH2 0x8BD JUMPI PUSH2 0x88E DUP2 PUSH2 0x768 JUMP JUMPDEST PUSH2 0x897 DUP5 PUSH2 0x77A JUMP JUMPDEST DUP2 ADD PUSH1 0x20 DUP6 LT ISZERO PUSH2 0x8A6 JUMPI DUP2 SWAP1 POP JUMPDEST PUSH2 0x8BA PUSH2 0x8B2 DUP6 PUSH2 0x77A JUMP JUMPDEST DUP4 ADD DUP3 PUSH2 0x85A JUMP JUMPDEST POP POP JUMPDEST POP POP POP JUMP JUMPDEST PUSH0 DUP3 DUP3 SHR SWAP1 POP SWAP3 SWAP2 POP POP JUMP JUMPDEST PUSH0 PUSH2 0x8DD PUSH0 NOT DUP5 PUSH1 0x8 MUL PUSH2 0x8C2 JUMP JUMPDEST NOT DUP1 DUP4 AND SWAP2 POP POP SWAP3 SWAP2 POP POP JUMP JUMPDEST PUSH0 PUSH2 0x8F5 DUP4 DUP4 PUSH2 0x8CE JUMP JUMPDEST SWAP2 POP DUP3 PUSH1 0x2 MUL DUP3 OR SWAP1 POP SWAP3 SWAP2 POP POP JUMP JUMPDEST PUSH2 0x90E DUP3 PUSH2 0x3CE JUMP JUMPDEST PUSH8 0xFFFFFFFFFFFFFFFF DUP2 GT ISZERO PUSH2 0x927 JUMPI PUSH2 0x926 PUSH2 0x4BA JUMP JUMPDEST JUMPDEST PUSH2 0x931 DUP3 SLOAD PUSH2 0x738 JUMP JUMPDEST PUSH2 0x93C DUP3 DUP3 DUP6 PUSH2 0x87C JUMP JUMPDEST PUSH0 PUSH1 0x20 SWAP1 POP PUSH1 0x1F DUP4 GT PUSH1 0x1 DUP2 EQ PUSH2 0x96D JUMPI PUSH0 DUP5 ISZERO PUSH2 0x95B JUMPI DUP3 DUP8 ADD MLOAD SWAP1 POP JUMPDEST PUSH2 0x965 DUP6 DUP3 PUSH2 0x8EA JUMP JUMPDEST DUP7 SSTORE POP PUSH2 0x9CC JUMP JUMPDEST PUSH1 0x1F NOT DUP5 AND PUSH2 0x97B DUP7 PUSH2 0x768 JUMP JUMPDEST PUSH0 JUMPDEST DUP3 DUP2 LT ISZERO PUSH2 0x9A2 JUMPI DUP5 DUP10 ADD MLOAD DUP3 SSTORE PUSH1 0x1 DUP3 ADD SWAP2 POP PUSH1 0x20 DUP6 ADD SWAP5 POP PUSH1 0x20 DUP2 ADD SWAP1 POP PUSH2 0x97D JUMP JUMPDEST DUP7 DUP4 LT ISZERO PUSH2 0x9BF JUMPI DUP5 DUP10 ADD MLOAD PUSH2 0x9BB PUSH1 0x1F DUP10 AND DUP3 PUSH2 0x8CE JUMP JUMPDEST DUP4 SSTORE POP JUMPDEST PUSH1 0x1 PUSH1 0x2 DUP9 MUL ADD DUP9 SSTORE POP POP POP JUMPDEST POP POP POP POP POP POP JUMP INVALID LOG2 PUSH5 0x6970667358 0x22 SLT KECCAK256 SWAP13 PUSH18 0x93FC15B856DB52232CB4E6D5BE5800C97161 0xF6 PUSH0 MULMOD 0x2A PUSH5 0x933005FDB1 SHL SAR PUSH5 0x736F6C6343 STOP ADDMOD BYTE STOP CALLER "
				},
				"gasEstimates": {
					"creation": {
						"codeDepositCost": "514000",
						"executionCost": "547",
						"totalCost": "514547"
					},
					"external": {
						"": "128",
						"addStudents(uint256,string,string)": "infinite",
						"getStudent(uint256)": "infinite",
						"getStudentCount()": "2418"
					}
				},
				"methodIdentifiers": {
					"addStudents(uint256,string,string)": "edfa2296",
					"getStudent(uint256)": "642f9163",
					"getStudentCount()": "41e0c407"
				}
			},
			"storageLayout": {
				"storage": [
					{
						"astId": 12,
						"contract": "LP3/BT/Student.sol:StudentData",
						"label": "students",
						"offset": 0,
						"slot": "0",
						"type": "t_array(t_struct(Student)8_storage)dyn_storage"
					}
				],
				"types": {
					"t_array(t_struct(Student)8_storage)dyn_storage": {
						"base": "t_struct(Student)8_storage",
						"encoding": "dynamic_array",
						"label": "struct StudentData.Student[]",
						"numberOfBytes": "32"
					},
					"t_string_storage": {
						"encoding": "bytes",
						"label": "string",
						"numberOfBytes": "32"
					},
					"t_struct(Student)8_storage": {
						"encoding": "inplace",
						"label": "struct StudentData.Student",
						"members": [
							{
								"astId": 3,
								"contract": "LP3/BT/Student.sol:StudentData",
								"label": "age",
								"offset": 0,
								"slot": "0",
								"type": "t_uint256"
							},
							{
								"astId": 5,
								"contract": "LP3/BT/Student.sol:StudentData",
								"label": "name",
								"offset": 0,
								"slot": "1",
								"type": "t_string_storage"
							},
							{
								"astId": 7,
								"contract": "LP3/BT/Student.sol:StudentData",
								"label": "major",
								"offset": 0,
								"slot": "2",
								"type": "t_string_storage"
							}
						],
						"numberOfBytes": "96"
					},
					"t_uint256": {
						"encoding": "inplace",
						"label": "uint256",
						"numberOfBytes": "32"
					}
				}
			},
			"userdoc": {
				"kind": "user",
				"methods": {},
				"version": 1
			}
		}
	}
}